{
  "_format": "hh-sol-artifact-1",
  "contractName": "DAOServerFactory",
  "sourceName": "contracts/DAOServerFactory.sol",
  "abi": [
    {
      "inputs": [
        {
          "internalType": "string",
          "name": "_daoName",
          "type": "string"
        },
        {
          "internalType": "string",
          "name": "_daoIconURL",
          "type": "string"
        },
        {
          "internalType": "string",
          "name": "_daoId",
          "type": "string"
        },
        {
          "internalType": "string[]",
          "name": "_names",
          "type": "string[]"
        },
        {
          "internalType": "string[]",
          "name": "_symbols",
          "type": "string[]"
        },
        {
          "internalType": "string[]",
          "name": "_tokenURIes",
          "type": "string[]"
        },
        {
          "internalType": "uint256[]",
          "name": "_durations",
          "type": "uint256[]"
        },
        {
          "internalType": "uint256[]",
          "name": "_prices",
          "type": "uint256[]"
        }
      ],
      "name": "createDAOServer",
      "outputs": [],
      "stateMutability": "nonpayable",
      "type": "function"
    },
    {
      "inputs": [
        {
          "internalType": "uint256",
          "name": "",
          "type": "uint256"
        }
      ],
      "name": "daoServers",
      "outputs": [
        {
          "internalType": "address",
          "name": "",
          "type": "address"
        }
      ],
      "stateMutability": "view",
      "type": "function"
    },
    {
      "inputs": [],
      "name": "getAllDAOServers",
      "outputs": [
        {
          "internalType": "address[]",
          "name": "",
          "type": "address[]"
        }
      ],
      "stateMutability": "view",
      "type": "function"
    },
    {
      "inputs": [],
      "name": "getDAOServersLength",
      "outputs": [
        {
          "internalType": "uint256",
          "name": "",
          "type": "uint256"
        }
      ],
      "stateMutability": "view",
      "type": "function"
    },
    {
      "inputs": [
        {
          "internalType": "address",
          "name": "_user",
          "type": "address"
        }
      ],
      "name": "getUserDAOServerRelations",
      "outputs": [
        {
          "components": [
            {
              "internalType": "address",
              "name": "daoAddress",
              "type": "address"
            },
            {
              "internalType": "uint256",
              "name": "membershipType",
              "type": "uint256"
            },
            {
              "internalType": "uint256",
              "name": "tokenId",
              "type": "uint256"
            }
          ],
          "internalType": "struct DAOServerFactory.userDaoRelation[]",
          "name": "",
          "type": "tuple[]"
        }
      ],
      "stateMutability": "view",
      "type": "function"
    }
  ],
  "bytecode": "0x608060405234801561001057600080fd5b50615f91806100206000396000f3fe60806040523480156200001157600080fd5b50600436106200005e5760003560e01c806355124c641462000063578063a44dc2141462000085578063c6f2efa814620000ab578063d3eea01514620000c4578063d60518a214620000f4575b600080fd5b6200006d62000106565b6040516200007c919062000b17565b60405180910390f35b6200009c620000963660046200079b565b6200016a565b6040516200007c919062000b66565b620000c2620000bc366004620007ed565b620004ab565b005b620000db620000d53660046200093d565b620005ef565b6040516001600160a01b0390911681526020016200007c565b6000546040519081526020016200007c565b606060008054806020026020016040519081016040528092919081815260200182805480156200016057602002820191906000526020600020905b81546001600160a01b0316815260019091019060200180831162000141575b5050505050905090565b600080546060919067ffffffffffffffff8111156200019957634e487b7160e01b600052604160045260246000fd5b604051908082528060200260200182016040528015620001fa57816020015b620001e6604051806060016040528060006001600160a01b0316815260200160008152602001600081525090565b815260200190600190039081620001b85790505b50905060005b600054811015620004a45760008082815481106200022e57634e487b7160e01b600052603260045260246000fd5b6000918252602090912001546040516399b1adbf60e01b81526001600160a01b038781166004830152909116915081906399b1adbf9060240160206040518083038186803b1580156200028057600080fd5b505afa15801562000295573d6000803e3d6000fd5b505050506040513d601f19601f82011682018060405250810190620002bb9190620007cb565b156200048e5760008281548110620002e357634e487b7160e01b600052603260045260246000fd5b9060005260206000200160009054906101000a90046001600160a01b03168383815181106200032257634e487b7160e01b600052603260045260246000fd5b60209081029190910101516001600160a01b03918216905260405163d44b9aa160e01b815286821660048201529082169063d44b9aa19060240160206040518083038186803b1580156200037557600080fd5b505afa1580156200038a573d6000803e3d6000fd5b505050506040513d601f19601f82011682018060405250810190620003b0919062000956565b838381518110620003d157634e487b7160e01b600052603260045260246000fd5b602090810291909101810151015260405163d01ad37560e01b81526001600160a01b03868116600483015282169063d01ad3759060240160206040518083038186803b1580156200042157600080fd5b505afa15801562000436573d6000803e3d6000fd5b505050506040513d601f19601f820116820180604052508101906200045c919062000956565b8383815181106200047d57634e487b7160e01b600052603260045260246000fd5b602002602001015160400181815250505b50806200049b8162000c58565b91505062000200565b5092915050565b600186604051620004bd919062000a27565b9081526040519081900360200190205460ff16156200051a5760405162461bcd60e51b815260206004820152601560248201527464616f5265676973746572656420616c726561647960581b604482015260640160405180910390fd5b600033898989898989898960405162000533906200061a565b620005479998979695949392919062000a45565b604051809103906000f08015801562000564573d6000803e3d6000fd5b5060008054600180820183559180527f290decd9548b62a8d60345a988386fc84ba6bc95484008f6362f93160ef3e5630180546001600160a01b0319166001600160a01b038416179055604051919250908190620005c4908a9062000a27565b908152604051908190036020019020805491151560ff19909216919091179055505050505050505050565b600081815481106200060057600080fd5b6000918252602090912001546001600160a01b0316905081565b6152c58062000c9783390190565b600082601f83011262000639578081fd5b81356020620006526200064c8362000bfe565b62000bca565b80838252828201915082860187848660051b890101111562000672578586fd5b855b85811015620006b857813567ffffffffffffffff81111562000694578788fd5b620006a48a87838c010162000729565b855250928401929084019060010162000674565b5090979650505050505050565b600082601f830112620006d6578081fd5b81356020620006e96200064c8362000bfe565b80838252828201915082860187848660051b890101111562000709578586fd5b855b85811015620006b8578135845292840192908401906001016200070b565b600082601f8301126200073a578081fd5b813567ffffffffffffffff81111562000757576200075762000c80565b6200076c601f8201601f191660200162000bca565b81815284602083860101111562000781578283fd5b816020850160208301379081016020019190915292915050565b600060208284031215620007ad578081fd5b81356001600160a01b0381168114620007c4578182fd5b9392505050565b600060208284031215620007dd578081fd5b81518015158114620007c4578182fd5b600080600080600080600080610100898b0312156200080a578384fd5b883567ffffffffffffffff8082111562000822578586fd5b620008308c838d0162000729565b995060208b013591508082111562000846578586fd5b620008548c838d0162000729565b985060408b01359150808211156200086a578586fd5b620008788c838d0162000729565b975060608b01359150808211156200088e578586fd5b6200089c8c838d0162000628565b965060808b0135915080821115620008b2578586fd5b620008c08c838d0162000628565b955060a08b0135915080821115620008d6578485fd5b620008e48c838d0162000628565b945060c08b0135915080821115620008fa578384fd5b620009088c838d01620006c5565b935060e08b01359150808211156200091e578283fd5b506200092d8b828c01620006c5565b9150509295985092959890939650565b6000602082840312156200094f578081fd5b5035919050565b60006020828403121562000968578081fd5b5051919050565b600082825180855260208086019550808260051b840101818601855b84811015620006b857601f19868403018952620009aa838351620009f9565b988401989250908301906001016200098b565b6000815180845260208085019450808401835b83811015620009ee57815187529582019590820190600101620009d0565b509495945050505050565b6000815180845262000a1381602086016020860162000c25565b601f01601f19169290920160200192915050565b6000825162000a3b81846020870162000c25565b9190910192915050565b6001600160a01b038a1681526101206020820181905260009062000a6c8382018c620009f9565b9050828103604084015262000a82818b620009f9565b9050828103606084015262000a98818a620009f9565b9050828103608084015262000aae81896200096f565b905082810360a084015262000ac481886200096f565b905082810360c084015262000ada81876200096f565b905082810360e084015262000af08186620009bd565b905082810361010084015262000b078185620009bd565b9c9b505050505050505050505050565b6020808252825182820181905260009190848201906040850190845b8181101562000b5a5783516001600160a01b03168352928401929184019160010162000b33565b50909695505050505050565b602080825282518282018190526000919060409081850190868401855b8281101562000bbd57815180516001600160a01b031685528681015187860152850151858501526060909301929085019060010162000b83565b5091979650505050505050565b604051601f8201601f1916810167ffffffffffffffff8111828210171562000bf65762000bf662000c80565b604052919050565b600067ffffffffffffffff82111562000c1b5762000c1b62000c80565b5060051b60200190565b60005b8381101562000c4257818101518382015260200162000c28565b8381111562000c52576000848401525b50505050565b600060001982141562000c7957634e487b7160e01b81526011600452602481fd5b5060010190565b634e487b7160e01b600052604160045260246000fdfe60a06040819052600060808190526200001b91600291620007af565b506040805160208101918290526000908190526200003c91600391620007af565b506040805160208101918290526000908190526200005d91600491620007af565b503480156200006b57600080fd5b50604051620052c5380380620052c58339810160408190526200008e91620009f2565b60008551118015620000a257506003855111155b8015620000b0575083518551145b8015620000be575082518551145b8015620000cc575081518551145b8015620000da575080518551145b6200011b5760405162461bcd60e51b815260206004820152600c60248201526b3632b733ba341032b93937b960a11b60448201526064015b60405180910390fd5b8751620001309060029060208b0190620007af565b508651620001469060039060208a0190620007af565b5085516200015c906004906020890190620007af565b5060018054336001600160a01b031991821617909155600080549091166001600160a01b038b161781556040805180820182526004808252634e6f6e6560e01b6020808401919091528351808501909452908352634e4f4e4560e01b90830152620001d7929091908a9068056bc75e2d631000009062000354565b6200022e6040518060400160405280600581526020016420b236b4b760d91b8152506040518060400160405280600381526020016241444d60e81b8152508968056bc75e2d6310000060006200035460201b60201c565b60005462000245906001600160a01b031662000510565b60005b855181101562000344576200032f8682815181106200027757634e487b7160e01b600052603260045260246000fd5b6020026020010151868381518110620002a057634e487b7160e01b600052603260045260246000fd5b6020026020010151868481518110620002c957634e487b7160e01b600052603260045260246000fd5b6020026020010151868581518110620002f257634e487b7160e01b600052603260045260246000fd5b60200260200101518686815181106200031b57634e487b7160e01b600052603260045260246000fd5b60200260200101516200035460201b60201c565b806200033b8162000d72565b91505062000248565b5050505050505050505062000dbc565b6000546001600160a01b03163314806200037857506001546001600160a01b031633145b620003b25760405162461bcd60e51b815260206004820152600960248201526827b7363ca0b236b4b760b91b604482015260640162000112565b60008585604051620003c4906200083e565b620003d192919062000b83565b604051809103906000f080158015620003ee573d6000803e3d6000fd5b506040805160c0810182526001600160a01b03838116825260208083018b81529383018a9052606083018990526080830188905260a083018790526005805460018101825560009190915283517f036b6384b5eca791c62761152d0c79bb0604c104a5fb6f4eb0703f3154bb3db0600690920291820180546001600160a01b0319169190941617835593518051959650929485949293620004b4937f036b6384b5eca791c62761152d0c79bb0604c104a5fb6f4eb0703f3154bb3db101920190620007af565b5060408201518051620004d2916002840191602090910190620007af565b5060608201518051620004f0916003840191602090910190620007af565b506080820151816004015560a08201518160050155505050505050505050565b6000546001600160a01b03163314806200053457506001546001600160a01b031633145b6200056e5760405162461bcd60e51b815260206004820152600960248201526827b7363ca0b236b4b760b91b604482015260640162000112565b6200057b8160016200057e565b50565b6000818152600860205260408120546200059e8364e8d4a5100062000ce0565b620005aa919062000cc5565b905060058281548110620005ce57634e487b7160e01b600052603260045260246000fd5b6000918252602090912060069091020154604051630f38ca0d60e31b81526001600160a01b03858116600483015260248201849052909116906379c6506890604401600060405180830381600087803b1580156200062b57600080fd5b505af115801562000640573d6000803e3d6000fd5b50505050600582815481106200066657634e487b7160e01b600052603260045260246000fd5b6000918252602090912060069091020154600580546001600160a01b039092169163162094c491849186908110620006ae57634e487b7160e01b600052603260045260246000fd5b90600052602060002090600602016003016040518363ffffffff1660e01b8152600401620006de92919062000bb5565b600060405180830381600087803b158015620006f957600080fd5b505af11580156200070e573d6000803e3d6000fd5b50505050600042600584815481106200073757634e487b7160e01b600052603260045260246000fd5b90600052602060002090600602016004015462000755919062000cc5565b60008381526009602090815260408083208490556001600160a01b0388168352600682528083208790556007825280832086905586835260089091528120805492935090620007a48362000d72565b919050555050505050565b828054620007bd9062000d35565b90600052602060002090601f016020900481019282620007e157600085556200082c565b82601f10620007fc57805160ff19168380011785556200082c565b828001600101855582156200082c579182015b828111156200082c5782518255916020019190600101906200080f565b506200083a9291506200084c565b5090565b6118808062003a4583390190565b5b808211156200083a57600081556001016200084d565b80516001600160a01b03811681146200087b57600080fd5b919050565b600082601f83011262000891578081fd5b81516020620008aa620008a48362000c9f565b62000c6c565b80838252828201915082860187848660051b8901011115620008ca578586fd5b855b858110156200090f5781516001600160401b03811115620008eb578788fd5b620008fb8a87838c010162000980565b8552509284019290840190600101620008cc565b5090979650505050505050565b600082601f8301126200092d578081fd5b8151602062000940620008a48362000c9f565b80838252828201915082860187848660051b890101111562000960578586fd5b855b858110156200090f5781518452928401929084019060010162000962565b600082601f83011262000991578081fd5b81516001600160401b03811115620009ad57620009ad62000da6565b620009c2601f8201601f191660200162000c6c565b818152846020838601011115620009d7578283fd5b620009ea82602083016020870162000d02565b949350505050565b60008060008060008060008060006101208a8c03121562000a11578485fd5b62000a1c8a62000863565b60208b01519099506001600160401b038082111562000a39578687fd5b62000a478d838e0162000980565b995060408c015191508082111562000a5d578687fd5b62000a6b8d838e0162000980565b985060608c015191508082111562000a81578687fd5b62000a8f8d838e0162000980565b975060808c015191508082111562000aa5578687fd5b62000ab38d838e0162000880565b965060a08c015191508082111562000ac9578586fd5b62000ad78d838e0162000880565b955060c08c015191508082111562000aed578485fd5b62000afb8d838e0162000880565b945060e08c015191508082111562000b11578384fd5b62000b1f8d838e016200091c565b93506101008c015191508082111562000b36578283fd5b5062000b458c828d016200091c565b9150509295985092959850929598565b6000815180845262000b6f81602086016020860162000d02565b601f01601f19169290920160200192915050565b60408152600062000b98604083018562000b55565b828103602084015262000bac818562000b55565b95945050505050565b8281526000602060408184015281845483600182811c91508083168062000bdd57607f831692505b85831081141562000bfc57634e487b7160e01b87526022600452602487fd5b604088018390526060880181801562000c1e576001811462000c305762000c5c565b60ff1986168252878201965062000c5c565b60008b815260209020895b8681101562000c565781548482015290850190890162000c3b565b83019750505b50949a9950505050505050505050565b604051601f8201601f191681016001600160401b038111828210171562000c975762000c9762000da6565b604052919050565b60006001600160401b0382111562000cbb5762000cbb62000da6565b5060051b60200190565b6000821982111562000cdb5762000cdb62000d90565b500190565b600081600019048311821515161562000cfd5762000cfd62000d90565b500290565b60005b8381101562000d1f57818101518382015260200162000d05565b8381111562000d2f576000848401525b50505050565b600181811c9082168062000d4a57607f821691505b6020821081141562000d6c57634e487b7160e01b600052602260045260246000fd5b50919050565b600060001982141562000d895762000d8962000d90565b5060010190565b634e487b7160e01b600052601160045260246000fd5b634e487b7160e01b600052604160045260246000fd5b612c798062000dcc6000396000f3fe608060405260043610620000fb5760003560e01c8063d01ad3751162000095578063e22f72981162000060578063e22f729814620002f8578063e8dbe1f21462000331578063f7dec0ec1462000362578063f851a440146200037957600080fd5b8063d01ad375146200024a578063d0888d44146200027b578063d44b9aa114620002a0578063e0187c4614620002d157600080fd5b80639774003d11620000d65780639774003d14620001a6578063988b627f14620001cd57806399b1adbf14620001e5578063cac2699b146200023257600080fd5b8063376827e91462000100578063489769361462000144578063966dae0e146200016b575b600080fd5b3480156200010d57600080fd5b50620001316200011f36600462001062565b60086020526000908152604090205481565b6040519081526020015b60405180910390f35b3480156200015157600080fd5b506200015c6200039b565b6040516200013b919062001201565b3480156200017857600080fd5b506001546200018d906001600160a01b031681565b6040516001600160a01b0390911681526020016200013b565b348015620001b357600080fd5b50620001cb620001c536600462000fc2565b62000431565b005b348015620001da57600080fd5b506200015c620005f1565b348015620001f257600080fd5b50620002216200020436600462000f72565b6001600160a01b0316600090815260066020526040902054151590565b60405190151581526020016200013b565b3480156200023f57600080fd5b506200015c62000600565b3480156200025757600080fd5b50620001316200026936600462000f72565b60076020526000908152604090205481565b3480156200028857600080fd5b50620001cb6200029a36600462000f72565b6200060f565b348015620002ad57600080fd5b5062000131620002bf36600462000f72565b60066020526000908152604090205481565b348015620002de57600080fd5b50620002e96200067d565b6040516200013b9190620010c9565b3480156200030557600080fd5b506200031d6200031736600462001062565b620008d6565b6040516200013b969594939291906200119b565b3480156200033e57600080fd5b50620001316200035036600462001062565b60096020526000908152604090205481565b620001cb6200037336600462000f96565b62000ad9565b3480156200038657600080fd5b506000546200018d906001600160a01b031681565b60028054620003aa906200133c565b80601f0160208091040260200160405190810160405280929190818152602001828054620003d8906200133c565b8015620004295780601f10620003fd5761010080835404028352916020019162000429565b820191906000526020600020905b8154815290600101906020018083116200040b57829003601f168201915b505050505081565b6000546001600160a01b03163314806200045557506001546001600160a01b031633145b620004935760405162461bcd60e51b815260206004820152600960248201526827b7363ca0b236b4b760b91b60448201526064015b60405180910390fd5b60008585604051620004a59062000e12565b620004b292919062001216565b604051809103906000f080158015620004cf573d6000803e3d6000fd5b506040805160c0810182526001600160a01b03838116825260208083018b81529383018a9052606083018990526080830188905260a083018790526005805460018101825560009190915283517f036b6384b5eca791c62761152d0c79bb0604c104a5fb6f4eb0703f3154bb3db0600690920291820180546001600160a01b031916919094161783559351805195965092948594929362000595937f036b6384b5eca791c62761152d0c79bb0604c104a5fb6f4eb0703f3154bb3db10192019062000e20565b5060408201518051620005b391600284019160209091019062000e20565b5060608201518051620005d191600384019160209091019062000e20565b506080820151816004015560a08201518160050155505050505050505050565b60038054620003aa906200133c565b60048054620003aa906200133c565b6000546001600160a01b03163314806200063357506001546001600160a01b031633145b6200066d5760405162461bcd60e51b815260206004820152600960248201526827b7363ca0b236b4b760b91b60448201526064016200048a565b6200067a81600162000be1565b50565b60606005805480602002602001604051908101604052809291908181526020016000905b82821015620008cd5760008481526020908190206040805160c081019091526006850290910180546001600160a01b031682526001810180549293919291840191620006ed906200133c565b80601f01602080910402602001604051908101604052809291908181526020018280546200071b906200133c565b80156200076c5780601f1062000740576101008083540402835291602001916200076c565b820191906000526020600020905b8154815290600101906020018083116200074e57829003601f168201915b5050505050815260200160028201805462000787906200133c565b80601f0160208091040260200160405190810160405280929190818152602001828054620007b5906200133c565b8015620008065780601f10620007da5761010080835404028352916020019162000806565b820191906000526020600020905b815481529060010190602001808311620007e857829003601f168201915b5050505050815260200160038201805462000821906200133c565b80601f01602080910402602001604051908101604052809291908181526020018280546200084f906200133c565b8015620008a05780601f106200087457610100808354040283529160200191620008a0565b820191906000526020600020905b8154815290600101906020018083116200088257829003601f168201915b505050505081526020016004820154815260200160058201548152505081526020019060010190620006a1565b50505050905090565b60058181548110620008e757600080fd5b6000918252602090912060069091020180546001820180546001600160a01b0390921693509062000918906200133c565b80601f016020809104026020016040519081016040528092919081815260200182805462000946906200133c565b8015620009975780601f106200096b5761010080835404028352916020019162000997565b820191906000526020600020905b8154815290600101906020018083116200097957829003601f168201915b505050505090806002018054620009ae906200133c565b80601f0160208091040260200160405190810160405280929190818152602001828054620009dc906200133c565b801562000a2d5780601f1062000a015761010080835404028352916020019162000a2d565b820191906000526020600020905b81548152906001019060200180831162000a0f57829003601f168201915b50505050509080600301805462000a44906200133c565b80601f016020809104026020016040519081016040528092919081815260200182805462000a72906200133c565b801562000ac35780601f1062000a975761010080835404028352916020019162000ac3565b820191906000526020600020905b81548152906001019060200180831162000aa557829003601f168201915b5050505050908060040154908060050154905086565b600554811062000b1b5760405162461bcd60e51b815260206004820152600c60248201526b496e76616c6964207479706560a01b60448201526064016200048a565b6005818154811062000b3d57634e487b7160e01b600052603260045260246000fd5b90600052602060002090600602016005015434101562000b8f5760405162461bcd60e51b815260206004820152600c60248201526b125b9cdd59999a58da595b9d60a21b60448201526064016200048a565b8062000bd15760405162461bcd60e51b815260206004820152601060248201526f21b0b713ba1036b4b73a1030b236b4b760811b60448201526064016200048a565b62000bdd828262000be1565b5050565b60008181526008602052604081205462000c018364e8d4a510006200131a565b62000c0d9190620012ff565b90506005828154811062000c3157634e487b7160e01b600052603260045260246000fd5b6000918252602090912060069091020154604051630f38ca0d60e31b81526001600160a01b03858116600483015260248201849052909116906379c6506890604401600060405180830381600087803b15801562000c8e57600080fd5b505af115801562000ca3573d6000803e3d6000fd5b505050506005828154811062000cc957634e487b7160e01b600052603260045260246000fd5b6000918252602090912060069091020154600580546001600160a01b039092169163162094c49184918690811062000d1157634e487b7160e01b600052603260045260246000fd5b90600052602060002090600602016003016040518363ffffffff1660e01b815260040162000d4192919062001248565b600060405180830381600087803b15801562000d5c57600080fd5b505af115801562000d71573d6000803e3d6000fd5b505050506000426005848154811062000d9a57634e487b7160e01b600052603260045260246000fd5b90600052602060002090600602016004015462000db89190620012ff565b60008381526009602090815260408083208490556001600160a01b038816835260068252808320879055600782528083208690558683526008909152812080549293509062000e078362001379565b919050555050505050565b61188080620013c483390190565b82805462000e2e906200133c565b90600052602060002090601f01602090048101928262000e52576000855562000e9d565b82601f1062000e6d57805160ff191683800117855562000e9d565b8280016001018555821562000e9d579182015b8281111562000e9d57825182559160200191906001019062000e80565b5062000eab92915062000eaf565b5090565b5b8082111562000eab576000815560010162000eb0565b80356001600160a01b038116811462000ede57600080fd5b919050565b600082601f83011262000ef4578081fd5b813567ffffffffffffffff8082111562000f125762000f12620013ad565b604051601f8301601f19908116603f0116810190828211818310171562000f3d5762000f3d620013ad565b8160405283815286602085880101111562000f56578485fd5b8360208701602083013792830160200193909352509392505050565b60006020828403121562000f84578081fd5b62000f8f8262000ec6565b9392505050565b6000806040838503121562000fa9578081fd5b62000fb48362000ec6565b946020939093013593505050565b600080600080600060a0868803121562000fda578081fd5b853567ffffffffffffffff8082111562000ff2578283fd5b6200100089838a0162000ee3565b9650602088013591508082111562001016578283fd5b6200102489838a0162000ee3565b955060408801359150808211156200103a578283fd5b50620010498882890162000ee3565b9598949750949560608101359550608001359392505050565b60006020828403121562001074578081fd5b5035919050565b60008151808452815b81811015620010a25760208185018101518683018201520162001084565b81811115620010b45782602083870101525b50601f01601f19169290920160200192915050565b60006020808301818452808551808352604092508286019150828160051b870101848801865b838110156200118d57888303603f19018552815180516001600160a01b031684528781015160c0898601819052906200112b828701826200107b565b91505087820151858203898701526200114582826200107b565b915050606080830151868303828801526200116183826200107b565b6080858101519089015260a09485015194909701939093525050509386019390860190600101620010ef565b509098975050505050505050565b6001600160a01b038716815260c060208201819052600090620011c1908301886200107b565b8281036040840152620011d581886200107b565b90508281036060840152620011eb81876200107b565b6080840195909552505060a00152949350505050565b60208152600062000f8f60208301846200107b565b6040815260006200122b60408301856200107b565b82810360208401526200123f81856200107b565b95945050505050565b8281526000602060408184015281845483600182811c9150808316806200127057607f831692505b8583108114156200128f57634e487b7160e01b87526022600452602487fd5b6040880183905260608801818015620012b15760018114620012c357620012ef565b60ff19861682528782019650620012ef565b60008b815260209020895b86811015620012e957815484820152908501908901620012ce565b83019750505b50949a9950505050505050505050565b6000821982111562001315576200131562001397565b500190565b600081600019048311821515161562001337576200133762001397565b500290565b600181811c908216806200135157607f821691505b602082108114156200137357634e487b7160e01b600052602260045260246000fd5b50919050565b600060001982141562001390576200139062001397565b5060010190565b634e487b7160e01b600052601160045260246000fd5b634e487b7160e01b600052604160045260246000fdfe60806040523480156200001157600080fd5b5060405162001880380380620018808339810160408190526200003491620001c7565b8151829082906200004d9060009060208501906200006e565b508051620000639060019060208401906200006e565b505050505062000281565b8280546200007c906200022e565b90600052602060002090601f016020900481019282620000a05760008555620000eb565b82601f10620000bb57805160ff1916838001178555620000eb565b82800160010185558215620000eb579182015b82811115620000eb578251825591602001919060010190620000ce565b50620000f9929150620000fd565b5090565b5b80821115620000f95760008155600101620000fe565b600082601f83011262000125578081fd5b81516001600160401b03808211156200014257620001426200026b565b604051601f8301601f19908116603f011681019082821181831017156200016d576200016d6200026b565b8160405283815260209250868385880101111562000189578485fd5b8491505b83821015620001ac57858201830151818301840152908201906200018d565b83821115620001bd57848385830101525b9695505050505050565b60008060408385031215620001da578182fd5b82516001600160401b0380821115620001f1578384fd5b620001ff8683870162000114565b9350602085015191508082111562000215578283fd5b50620002248582860162000114565b9150509250929050565b600181811c908216806200024357607f821691505b602082108114156200026557634e487b7160e01b600052602260045260246000fd5b50919050565b634e487b7160e01b600052604160045260246000fd5b6115ef80620002916000396000f3fe608060405234801561001057600080fd5b50600436106101005760003560e01c80636352211e11610097578063a22cb46511610066578063a22cb4651461021d578063b88d4fde14610230578063c87b56dd14610243578063e985e9c51461025657600080fd5b80636352211e146101ce57806370a08231146101e157806379c650681461020257806395d89b411461021557600080fd5b8063162094c4116100d3578063162094c41461018257806323b872dd1461019557806342842e0e146101a85780634f558e79146101bb57600080fd5b806301ffc9a71461010557806306fdde031461012d578063081812fc14610142578063095ea7b31461016d575b600080fd5b6101186101133660046112ef565b610292565b60405190151581526020015b60405180910390f35b6101356102e4565b604051610124919061142f565b610155610150366004611327565b610376565b6040516001600160a01b039091168152602001610124565b61018061017b3660046112c6565b61039d565b005b61018061019036600461133f565b6104b8565b6101806101a33660046111d8565b6104c6565b6101806101b63660046111d8565b6104f7565b6101186101c9366004611327565b610512565b6101556101dc366004611327565b610531565b6101f46101ef36600461118c565b610591565b604051908152602001610124565b6101806102103660046112c6565b610617565b610135610621565b61018061022b36600461128c565b610630565b61018061023e366004611213565b61063b565b610135610251366004611327565b610673565b6101186102643660046111a6565b6001600160a01b03918216600090815260056020908152604080832093909416825291909152205460ff1690565b60006001600160e01b031982166380ac58cd60e01b14806102c357506001600160e01b03198216635b5e139f60e01b145b806102de57506301ffc9a760e01b6001600160e01b03198316145b92915050565b6060600080546102f390611552565b80601f016020809104026020016040519081016040528092919081815260200182805461031f90611552565b801561036c5780601f106103415761010080835404028352916020019161036c565b820191906000526020600020905b81548152906001019060200180831161034f57829003601f168201915b5050505050905090565b600061038182610784565b506000908152600460205260409020546001600160a01b031690565b60006103a882610531565b9050806001600160a01b0316836001600160a01b0316141561041b5760405162461bcd60e51b815260206004820152602160248201527f4552433732313a20617070726f76616c20746f2063757272656e74206f776e656044820152603960f91b60648201526084015b60405180910390fd5b336001600160a01b038216148061043757506104378133610264565b6104a95760405162461bcd60e51b815260206004820152603d60248201527f4552433732313a20617070726f76652063616c6c6572206973206e6f7420746f60448201527f6b656e206f776e6572206f7220617070726f76656420666f7220616c6c0000006064820152608401610412565b6104b383836107e6565b505050565b6104c28282610854565b5050565b6104d033826108ee565b6104ec5760405162461bcd60e51b815260040161041290611442565b6104b383838361096c565b6104b38383836040518060200160405280600081525061063b565b6000818152600260205260408120546001600160a01b031615156102de565b6000818152600260205260408120546001600160a01b0316806102de5760405162461bcd60e51b8152602060048201526018602482015277115490cdcc8c4e881a5b9d985b1a59081d1bdad95b88125160421b6044820152606401610412565b60006001600160a01b0382166105fb5760405162461bcd60e51b815260206004820152602960248201527f4552433732313a2061646472657373207a65726f206973206e6f7420612076616044820152683634b21037bbb732b960b91b6064820152608401610412565b506001600160a01b031660009081526003602052604090205490565b6104c28282610ad0565b6060600180546102f390611552565b6104c2338383610c5b565b61064533836108ee565b6106615760405162461bcd60e51b815260040161041290611442565b61066d84848484610d2a565b50505050565b606061067e82610784565b6000828152600660205260408120805461069790611552565b80601f01602080910402602001604051908101604052809291908181526020018280546106c390611552565b80156107105780601f106106e557610100808354040283529160200191610710565b820191906000526020600020905b8154815290600101906020018083116106f357829003601f168201915b50505050509050600061072e60408051602081019091526000815290565b9050805160001415610741575092915050565b81511561077357808260405160200161075b9291906113c3565b60405160208183030381529060405292505050919050565b61077c84610d5d565b949350505050565b6000818152600260205260409020546001600160a01b03166107e35760405162461bcd60e51b8152602060048201526018602482015277115490cdcc8c4e881a5b9d985b1a59081d1bdad95b88125160421b6044820152606401610412565b50565b600081815260046020526040902080546001600160a01b0319166001600160a01b038416908117909155819061081b82610531565b6001600160a01b03167f8c5be1e5ebec7d5bd14f71427d1e84f3dd0314c0f7b2291e5b200ac8c7c3b92560405160405180910390a45050565b6000828152600260205260409020546001600160a01b03166108cf5760405162461bcd60e51b815260206004820152602e60248201527f45524337323155524953746f726167653a2055524920736574206f66206e6f6e60448201526d32bc34b9ba32b73a103a37b5b2b760911b6064820152608401610412565b600082815260066020908152604090912082516104b392840190611061565b6000806108fa83610531565b9050806001600160a01b0316846001600160a01b0316148061094157506001600160a01b0380821660009081526005602090815260408083209388168352929052205460ff165b8061077c5750836001600160a01b031661095a84610376565b6001600160a01b031614949350505050565b826001600160a01b031661097f82610531565b6001600160a01b0316146109a55760405162461bcd60e51b8152600401610412906114e1565b6001600160a01b038216610a075760405162461bcd60e51b8152602060048201526024808201527f4552433732313a207472616e7366657220746f20746865207a65726f206164646044820152637265737360e01b6064820152608401610412565b826001600160a01b0316610a1a82610531565b6001600160a01b031614610a405760405162461bcd60e51b8152600401610412906114e1565b600081815260046020908152604080832080546001600160a01b03199081169091556001600160a01b0387811680865260038552838620805460001901905590871680865283862080546001019055868652600290945282852080549092168417909155905184937fddf252ad1be2c89b69c2b068fc378daa952ba7f163c4a11628f55a4df523b3ef91a4505050565b6001600160a01b038216610b265760405162461bcd60e51b815260206004820181905260248201527f4552433732313a206d696e7420746f20746865207a65726f20616464726573736044820152606401610412565b6000818152600260205260409020546001600160a01b031615610b8b5760405162461bcd60e51b815260206004820152601c60248201527f4552433732313a20746f6b656e20616c7265616479206d696e746564000000006044820152606401610412565b6000818152600260205260409020546001600160a01b031615610bf05760405162461bcd60e51b815260206004820152601c60248201527f4552433732313a20746f6b656e20616c7265616479206d696e746564000000006044820152606401610412565b6001600160a01b038216600081815260036020908152604080832080546001019055848352600290915280822080546001600160a01b0319168417905551839291907fddf252ad1be2c89b69c2b068fc378daa952ba7f163c4a11628f55a4df523b3ef908290a45050565b816001600160a01b0316836001600160a01b03161415610cbd5760405162461bcd60e51b815260206004820152601960248201527f4552433732313a20617070726f766520746f2063616c6c6572000000000000006044820152606401610412565b6001600160a01b03838116600081815260056020908152604080832094871680845294825291829020805460ff191686151590811790915591519182527f17307eab39ab6107e8899845ad3d59bd9653f200f220920489ca2b5937696c31910160405180910390a3505050565b610d3584848461096c565b610d4184848484610dd1565b61066d5760405162461bcd60e51b81526004016104129061148f565b6060610d6882610784565b6000610d7f60408051602081019091526000815290565b90506000815111610d9f5760405180602001604052806000815250610dca565b80610da984610ede565b604051602001610dba9291906113c3565b6040516020818303038152906040525b9392505050565b60006001600160a01b0384163b15610ed357604051630a85bd0160e11b81526001600160a01b0385169063150b7a0290610e159033908990889088906004016113f2565b602060405180830381600087803b158015610e2f57600080fd5b505af1925050508015610e5f575060408051601f3d908101601f19168201909252610e5c9181019061130b565b60015b610eb9573d808015610e8d576040519150601f19603f3d011682016040523d82523d6000602084013e610e92565b606091505b508051610eb15760405162461bcd60e51b81526004016104129061148f565b805181602001fd5b6001600160e01b031916630a85bd0160e11b14905061077c565b506001949350505050565b60606000610eeb83610f89565b600101905060008167ffffffffffffffff811115610f1957634e487b7160e01b600052604160045260246000fd5b6040519080825280601f01601f191660200182016040528015610f43576020820181803683370190505b5090508181016020015b600019016f181899199a1a9b1b9c1cb0b131b232b360811b600a86061a8153600a8504945084610f7c57610f81565b610f4d565b509392505050565b60008072184f03e93ff9f4daa797ed6e38ed64bf6a1f0160401b8310610fc85772184f03e93ff9f4daa797ed6e38ed64bf6a1f0160401b830492506040015b6d04ee2d6d415b85acef81000000008310610ff4576d04ee2d6d415b85acef8100000000830492506020015b662386f26fc10000831061101257662386f26fc10000830492506010015b6305f5e100831061102a576305f5e100830492506008015b612710831061103e57612710830492506004015b60648310611050576064830492506002015b600a83106102de5760010192915050565b82805461106d90611552565b90600052602060002090601f01602090048101928261108f57600085556110d5565b82601f106110a857805160ff19168380011785556110d5565b828001600101855582156110d5579182015b828111156110d55782518255916020019190600101906110ba565b506110e19291506110e5565b5090565b5b808211156110e157600081556001016110e6565b600067ffffffffffffffff808411156111155761111561158d565b604051601f8501601f19908116603f0116810190828211818310171561113d5761113d61158d565b8160405280935085815286868601111561115657600080fd5b858560208301376000602087830101525050509392505050565b80356001600160a01b038116811461118757600080fd5b919050565b60006020828403121561119d578081fd5b610dca82611170565b600080604083850312156111b8578081fd5b6111c183611170565b91506111cf60208401611170565b90509250929050565b6000806000606084860312156111ec578081fd5b6111f584611170565b925061120360208501611170565b9150604084013590509250925092565b60008060008060808587031215611228578081fd5b61123185611170565b935061123f60208601611170565b925060408501359150606085013567ffffffffffffffff811115611261578182fd5b8501601f81018713611271578182fd5b611280878235602084016110fa565b91505092959194509250565b6000806040838503121561129e578182fd5b6112a783611170565b9150602083013580151581146112bb578182fd5b809150509250929050565b600080604083850312156112d8578182fd5b6112e183611170565b946020939093013593505050565b600060208284031215611300578081fd5b8135610dca816115a3565b60006020828403121561131c578081fd5b8151610dca816115a3565b600060208284031215611338578081fd5b5035919050565b60008060408385031215611351578182fd5b82359150602083013567ffffffffffffffff81111561136e578182fd5b8301601f8101851361137e578182fd5b61138d858235602084016110fa565b9150509250929050565b600081518084526113af816020860160208601611526565b601f01601f19169290920160200192915050565b600083516113d5818460208801611526565b8351908301906113e9818360208801611526565b01949350505050565b6001600160a01b038581168252841660208201526040810183905260806060820181905260009061142590830184611397565b9695505050505050565b602081526000610dca6020830184611397565b6020808252602d908201527f4552433732313a2063616c6c6572206973206e6f7420746f6b656e206f776e6560408201526c1c881bdc88185c1c1c9bdd9959609a1b606082015260800190565b60208082526032908201527f4552433732313a207472616e7366657220746f206e6f6e20455243373231526560408201527131b2b4bb32b91034b6b83632b6b2b73a32b960711b606082015260800190565b60208082526025908201527f4552433732313a207472616e736665722066726f6d20696e636f72726563742060408201526437bbb732b960d91b606082015260800190565b60005b83811015611541578181015183820152602001611529565b8381111561066d5750506000910152565b600181811c9082168061156657607f821691505b6020821081141561158757634e487b7160e01b600052602260045260246000fd5b50919050565b634e487b7160e01b600052604160045260246000fd5b6001600160e01b0319811681146107e357600080fdfea2646970667358221220e7439d32ced5e556836fa627b72d7f4b38d8bf3eb3e509e022c776c05e31410464736f6c63430008040033a26469706673582212206794fc25c021139282211003abf9682ed3f7830a55cf50775e94a811180397cc64736f6c6343000804003360806040523480156200001157600080fd5b5060405162001880380380620018808339810160408190526200003491620001c7565b8151829082906200004d9060009060208501906200006e565b508051620000639060019060208401906200006e565b505050505062000281565b8280546200007c906200022e565b90600052602060002090601f016020900481019282620000a05760008555620000eb565b82601f10620000bb57805160ff1916838001178555620000eb565b82800160010185558215620000eb579182015b82811115620000eb578251825591602001919060010190620000ce565b50620000f9929150620000fd565b5090565b5b80821115620000f95760008155600101620000fe565b600082601f83011262000125578081fd5b81516001600160401b03808211156200014257620001426200026b565b604051601f8301601f19908116603f011681019082821181831017156200016d576200016d6200026b565b8160405283815260209250868385880101111562000189578485fd5b8491505b83821015620001ac57858201830151818301840152908201906200018d565b83821115620001bd57848385830101525b9695505050505050565b60008060408385031215620001da578182fd5b82516001600160401b0380821115620001f1578384fd5b620001ff8683870162000114565b9350602085015191508082111562000215578283fd5b50620002248582860162000114565b9150509250929050565b600181811c908216806200024357607f821691505b602082108114156200026557634e487b7160e01b600052602260045260246000fd5b50919050565b634e487b7160e01b600052604160045260246000fd5b6115ef80620002916000396000f3fe608060405234801561001057600080fd5b50600436106101005760003560e01c80636352211e11610097578063a22cb46511610066578063a22cb4651461021d578063b88d4fde14610230578063c87b56dd14610243578063e985e9c51461025657600080fd5b80636352211e146101ce57806370a08231146101e157806379c650681461020257806395d89b411461021557600080fd5b8063162094c4116100d3578063162094c41461018257806323b872dd1461019557806342842e0e146101a85780634f558e79146101bb57600080fd5b806301ffc9a71461010557806306fdde031461012d578063081812fc14610142578063095ea7b31461016d575b600080fd5b6101186101133660046112ef565b610292565b60405190151581526020015b60405180910390f35b6101356102e4565b604051610124919061142f565b610155610150366004611327565b610376565b6040516001600160a01b039091168152602001610124565b61018061017b3660046112c6565b61039d565b005b61018061019036600461133f565b6104b8565b6101806101a33660046111d8565b6104c6565b6101806101b63660046111d8565b6104f7565b6101186101c9366004611327565b610512565b6101556101dc366004611327565b610531565b6101f46101ef36600461118c565b610591565b604051908152602001610124565b6101806102103660046112c6565b610617565b610135610621565b61018061022b36600461128c565b610630565b61018061023e366004611213565b61063b565b610135610251366004611327565b610673565b6101186102643660046111a6565b6001600160a01b03918216600090815260056020908152604080832093909416825291909152205460ff1690565b60006001600160e01b031982166380ac58cd60e01b14806102c357506001600160e01b03198216635b5e139f60e01b145b806102de57506301ffc9a760e01b6001600160e01b03198316145b92915050565b6060600080546102f390611552565b80601f016020809104026020016040519081016040528092919081815260200182805461031f90611552565b801561036c5780601f106103415761010080835404028352916020019161036c565b820191906000526020600020905b81548152906001019060200180831161034f57829003601f168201915b5050505050905090565b600061038182610784565b506000908152600460205260409020546001600160a01b031690565b60006103a882610531565b9050806001600160a01b0316836001600160a01b0316141561041b5760405162461bcd60e51b815260206004820152602160248201527f4552433732313a20617070726f76616c20746f2063757272656e74206f776e656044820152603960f91b60648201526084015b60405180910390fd5b336001600160a01b038216148061043757506104378133610264565b6104a95760405162461bcd60e51b815260206004820152603d60248201527f4552433732313a20617070726f76652063616c6c6572206973206e6f7420746f60448201527f6b656e206f776e6572206f7220617070726f76656420666f7220616c6c0000006064820152608401610412565b6104b383836107e6565b505050565b6104c28282610854565b5050565b6104d033826108ee565b6104ec5760405162461bcd60e51b815260040161041290611442565b6104b383838361096c565b6104b38383836040518060200160405280600081525061063b565b6000818152600260205260408120546001600160a01b031615156102de565b6000818152600260205260408120546001600160a01b0316806102de5760405162461bcd60e51b8152602060048201526018602482015277115490cdcc8c4e881a5b9d985b1a59081d1bdad95b88125160421b6044820152606401610412565b60006001600160a01b0382166105fb5760405162461bcd60e51b815260206004820152602960248201527f4552433732313a2061646472657373207a65726f206973206e6f7420612076616044820152683634b21037bbb732b960b91b6064820152608401610412565b506001600160a01b031660009081526003602052604090205490565b6104c28282610ad0565b6060600180546102f390611552565b6104c2338383610c5b565b61064533836108ee565b6106615760405162461bcd60e51b815260040161041290611442565b61066d84848484610d2a565b50505050565b606061067e82610784565b6000828152600660205260408120805461069790611552565b80601f01602080910402602001604051908101604052809291908181526020018280546106c390611552565b80156107105780601f106106e557610100808354040283529160200191610710565b820191906000526020600020905b8154815290600101906020018083116106f357829003601f168201915b50505050509050600061072e60408051602081019091526000815290565b9050805160001415610741575092915050565b81511561077357808260405160200161075b9291906113c3565b60405160208183030381529060405292505050919050565b61077c84610d5d565b949350505050565b6000818152600260205260409020546001600160a01b03166107e35760405162461bcd60e51b8152602060048201526018602482015277115490cdcc8c4e881a5b9d985b1a59081d1bdad95b88125160421b6044820152606401610412565b50565b600081815260046020526040902080546001600160a01b0319166001600160a01b038416908117909155819061081b82610531565b6001600160a01b03167f8c5be1e5ebec7d5bd14f71427d1e84f3dd0314c0f7b2291e5b200ac8c7c3b92560405160405180910390a45050565b6000828152600260205260409020546001600160a01b03166108cf5760405162461bcd60e51b815260206004820152602e60248201527f45524337323155524953746f726167653a2055524920736574206f66206e6f6e60448201526d32bc34b9ba32b73a103a37b5b2b760911b6064820152608401610412565b600082815260066020908152604090912082516104b392840190611061565b6000806108fa83610531565b9050806001600160a01b0316846001600160a01b0316148061094157506001600160a01b0380821660009081526005602090815260408083209388168352929052205460ff165b8061077c5750836001600160a01b031661095a84610376565b6001600160a01b031614949350505050565b826001600160a01b031661097f82610531565b6001600160a01b0316146109a55760405162461bcd60e51b8152600401610412906114e1565b6001600160a01b038216610a075760405162461bcd60e51b8152602060048201526024808201527f4552433732313a207472616e7366657220746f20746865207a65726f206164646044820152637265737360e01b6064820152608401610412565b826001600160a01b0316610a1a82610531565b6001600160a01b031614610a405760405162461bcd60e51b8152600401610412906114e1565b600081815260046020908152604080832080546001600160a01b03199081169091556001600160a01b0387811680865260038552838620805460001901905590871680865283862080546001019055868652600290945282852080549092168417909155905184937fddf252ad1be2c89b69c2b068fc378daa952ba7f163c4a11628f55a4df523b3ef91a4505050565b6001600160a01b038216610b265760405162461bcd60e51b815260206004820181905260248201527f4552433732313a206d696e7420746f20746865207a65726f20616464726573736044820152606401610412565b6000818152600260205260409020546001600160a01b031615610b8b5760405162461bcd60e51b815260206004820152601c60248201527f4552433732313a20746f6b656e20616c7265616479206d696e746564000000006044820152606401610412565b6000818152600260205260409020546001600160a01b031615610bf05760405162461bcd60e51b815260206004820152601c60248201527f4552433732313a20746f6b656e20616c7265616479206d696e746564000000006044820152606401610412565b6001600160a01b038216600081815260036020908152604080832080546001019055848352600290915280822080546001600160a01b0319168417905551839291907fddf252ad1be2c89b69c2b068fc378daa952ba7f163c4a11628f55a4df523b3ef908290a45050565b816001600160a01b0316836001600160a01b03161415610cbd5760405162461bcd60e51b815260206004820152601960248201527f4552433732313a20617070726f766520746f2063616c6c6572000000000000006044820152606401610412565b6001600160a01b03838116600081815260056020908152604080832094871680845294825291829020805460ff191686151590811790915591519182527f17307eab39ab6107e8899845ad3d59bd9653f200f220920489ca2b5937696c31910160405180910390a3505050565b610d3584848461096c565b610d4184848484610dd1565b61066d5760405162461bcd60e51b81526004016104129061148f565b6060610d6882610784565b6000610d7f60408051602081019091526000815290565b90506000815111610d9f5760405180602001604052806000815250610dca565b80610da984610ede565b604051602001610dba9291906113c3565b6040516020818303038152906040525b9392505050565b60006001600160a01b0384163b15610ed357604051630a85bd0160e11b81526001600160a01b0385169063150b7a0290610e159033908990889088906004016113f2565b602060405180830381600087803b158015610e2f57600080fd5b505af1925050508015610e5f575060408051601f3d908101601f19168201909252610e5c9181019061130b565b60015b610eb9573d808015610e8d576040519150601f19603f3d011682016040523d82523d6000602084013e610e92565b606091505b508051610eb15760405162461bcd60e51b81526004016104129061148f565b805181602001fd5b6001600160e01b031916630a85bd0160e11b14905061077c565b506001949350505050565b60606000610eeb83610f89565b600101905060008167ffffffffffffffff811115610f1957634e487b7160e01b600052604160045260246000fd5b6040519080825280601f01601f191660200182016040528015610f43576020820181803683370190505b5090508181016020015b600019016f181899199a1a9b1b9c1cb0b131b232b360811b600a86061a8153600a8504945084610f7c57610f81565b610f4d565b509392505050565b60008072184f03e93ff9f4daa797ed6e38ed64bf6a1f0160401b8310610fc85772184f03e93ff9f4daa797ed6e38ed64bf6a1f0160401b830492506040015b6d04ee2d6d415b85acef81000000008310610ff4576d04ee2d6d415b85acef8100000000830492506020015b662386f26fc10000831061101257662386f26fc10000830492506010015b6305f5e100831061102a576305f5e100830492506008015b612710831061103e57612710830492506004015b60648310611050576064830492506002015b600a83106102de5760010192915050565b82805461106d90611552565b90600052602060002090601f01602090048101928261108f57600085556110d5565b82601f106110a857805160ff19168380011785556110d5565b828001600101855582156110d5579182015b828111156110d55782518255916020019190600101906110ba565b506110e19291506110e5565b5090565b5b808211156110e157600081556001016110e6565b600067ffffffffffffffff808411156111155761111561158d565b604051601f8501601f19908116603f0116810190828211818310171561113d5761113d61158d565b8160405280935085815286868601111561115657600080fd5b858560208301376000602087830101525050509392505050565b80356001600160a01b038116811461118757600080fd5b919050565b60006020828403121561119d578081fd5b610dca82611170565b600080604083850312156111b8578081fd5b6111c183611170565b91506111cf60208401611170565b90509250929050565b6000806000606084860312156111ec578081fd5b6111f584611170565b925061120360208501611170565b9150604084013590509250925092565b60008060008060808587031215611228578081fd5b61123185611170565b935061123f60208601611170565b925060408501359150606085013567ffffffffffffffff811115611261578182fd5b8501601f81018713611271578182fd5b611280878235602084016110fa565b91505092959194509250565b6000806040838503121561129e578182fd5b6112a783611170565b9150602083013580151581146112bb578182fd5b809150509250929050565b600080604083850312156112d8578182fd5b6112e183611170565b946020939093013593505050565b600060208284031215611300578081fd5b8135610dca816115a3565b60006020828403121561131c578081fd5b8151610dca816115a3565b600060208284031215611338578081fd5b5035919050565b60008060408385031215611351578182fd5b82359150602083013567ffffffffffffffff81111561136e578182fd5b8301601f8101851361137e578182fd5b61138d858235602084016110fa565b9150509250929050565b600081518084526113af816020860160208601611526565b601f01601f19169290920160200192915050565b600083516113d5818460208801611526565b8351908301906113e9818360208801611526565b01949350505050565b6001600160a01b038581168252841660208201526040810183905260806060820181905260009061142590830184611397565b9695505050505050565b602081526000610dca6020830184611397565b6020808252602d908201527f4552433732313a2063616c6c6572206973206e6f7420746f6b656e206f776e6560408201526c1c881bdc88185c1c1c9bdd9959609a1b606082015260800190565b60208082526032908201527f4552433732313a207472616e7366657220746f206e6f6e20455243373231526560408201527131b2b4bb32b91034b6b83632b6b2b73a32b960711b606082015260800190565b60208082526025908201527f4552433732313a207472616e736665722066726f6d20696e636f72726563742060408201526437bbb732b960d91b606082015260800190565b60005b83811015611541578181015183820152602001611529565b8381111561066d5750506000910152565b600181811c9082168061156657607f821691505b6020821081141561158757634e487b7160e01b600052602260045260246000fd5b50919050565b634e487b7160e01b600052604160045260246000fd5b6001600160e01b0319811681146107e357600080fdfea2646970667358221220e7439d32ced5e556836fa627b72d7f4b38d8bf3eb3e509e022c776c05e31410464736f6c63430008040033a2646970667358221220ea87ba6ea311febd360db31f29bd0d34cd5168a91ab9d432da5356c81703a66864736f6c63430008040033",
  "linkReferences": {},
  "deployedLinkReferences": {}
}