{
  "_format": "hh-sol-artifact-1",
  "contractName": "DAOServerFactory",
  "sourceName": "contracts/DAOServerFactory.sol",
  "abi": [
    {
      "inputs": [
        {
          "internalType": "string",
          "name": "_daoName",
          "type": "string"
        },
        {
          "internalType": "string",
          "name": "_daoDescription",
          "type": "string"
        },
        {
          "internalType": "string",
          "name": "_adminURI",
          "type": "string"
        },
        {
          "internalType": "string[]",
          "name": "_names",
          "type": "string[]"
        },
        {
          "internalType": "string[]",
          "name": "_symbols",
          "type": "string[]"
        },
        {
          "internalType": "string[]",
          "name": "_tokenURIes",
          "type": "string[]"
        },
        {
          "internalType": "uint256[]",
          "name": "_durations",
          "type": "uint256[]"
        },
        {
          "internalType": "uint256[]",
          "name": "_prices",
          "type": "uint256[]"
        }
      ],
      "name": "createDAOServer",
      "outputs": [],
      "stateMutability": "nonpayable",
      "type": "function"
    },
    {
      "inputs": [
        {
          "internalType": "uint256",
          "name": "",
          "type": "uint256"
        }
      ],
      "name": "daoServers",
      "outputs": [
        {
          "internalType": "address",
          "name": "",
          "type": "address"
        }
      ],
      "stateMutability": "view",
      "type": "function"
    },
    {
      "inputs": [],
      "name": "getAllDAOServers",
      "outputs": [
        {
          "internalType": "address[]",
          "name": "",
          "type": "address[]"
        }
      ],
      "stateMutability": "view",
      "type": "function"
    },
    {
      "inputs": [],
      "name": "getDAOServersLength",
      "outputs": [
        {
          "internalType": "uint256",
          "name": "",
          "type": "uint256"
        }
      ],
      "stateMutability": "view",
      "type": "function"
    },
    {
      "inputs": [
        {
          "internalType": "address",
          "name": "_user",
          "type": "address"
        }
      ],
      "name": "getUserDAOServerRelations",
      "outputs": [
        {
          "components": [
            {
              "internalType": "address",
              "name": "daoAddress",
              "type": "address"
            },
            {
              "internalType": "uint256",
              "name": "membershipType",
              "type": "uint256"
            },
            {
              "internalType": "uint256",
              "name": "tokenId",
              "type": "uint256"
            }
          ],
          "internalType": "struct DAOServerFactory.userDaoRelation[]",
          "name": "",
          "type": "tuple[]"
        }
      ],
      "stateMutability": "view",
      "type": "function"
    }
  ],
  "bytecode": "0x608060405234801561001057600080fd5b50615f7b806100206000396000f3fe60806040523480156200001157600080fd5b50600436106200005e5760003560e01c806355124c641462000063578063a44dc2141462000085578063c6f2efa814620000ab578063d3eea01514620000c4578063d60518a214620000f4575b600080fd5b6200006d62000106565b6040516200007c919062000a82565b60405180910390f35b6200009c62000096366004620006fa565b6200016a565b6040516200007c919062000ad1565b620000c2620000bc3660046200074c565b620004ab565b005b620000db620000d53660046200089c565b6200054e565b6040516001600160a01b0390911681526020016200007c565b6000546040519081526020016200007c565b606060008054806020026020016040519081016040528092919081815260200182805480156200016057602002820191906000526020600020905b81546001600160a01b0316815260019091019060200180831162000141575b5050505050905090565b600080546060919067ffffffffffffffff8111156200019957634e487b7160e01b600052604160045260246000fd5b604051908082528060200260200182016040528015620001fa57816020015b620001e6604051806060016040528060006001600160a01b0316815260200160008152602001600081525090565b815260200190600190039081620001b85790505b50905060005b600054811015620004a45760008082815481106200022e57634e487b7160e01b600052603260045260246000fd5b6000918252602090912001546040516399b1adbf60e01b81526001600160a01b038781166004830152909116915081906399b1adbf9060240160206040518083038186803b1580156200028057600080fd5b505afa15801562000295573d6000803e3d6000fd5b505050506040513d601f19601f82011682018060405250810190620002bb91906200072a565b156200048e5760008281548110620002e357634e487b7160e01b600052603260045260246000fd5b9060005260206000200160009054906101000a90046001600160a01b03168383815181106200032257634e487b7160e01b600052603260045260246000fd5b60209081029190910101516001600160a01b03918216905260405163d44b9aa160e01b815286821660048201529082169063d44b9aa19060240160206040518083038186803b1580156200037557600080fd5b505afa1580156200038a573d6000803e3d6000fd5b505050506040513d601f19601f82011682018060405250810190620003b09190620008b5565b838381518110620003d157634e487b7160e01b600052603260045260246000fd5b602090810291909101810151015260405163d01ad37560e01b81526001600160a01b03868116600483015282169063d01ad3759060240160206040518083038186803b1580156200042157600080fd5b505afa15801562000436573d6000803e3d6000fd5b505050506040513d601f19601f820116820180604052508101906200045c9190620008b5565b8383815181106200047d57634e487b7160e01b600052603260045260246000fd5b602002602001015160400181815250505b50806200049b8162000b83565b91505062000200565b5092915050565b6000338989898989898989604051620004c49062000579565b620004d899989796959493929190620009b0565b604051809103906000f080158015620004f5573d6000803e3d6000fd5b50600080546001810182559080527f290decd9548b62a8d60345a988386fc84ba6bc95484008f6362f93160ef3e5630180546001600160a01b0319166001600160a01b0392909216919091179055505050505050505050565b600081815481106200055f57600080fd5b6000918252602090912001546001600160a01b0316905081565b6153848062000bc283390190565b600082601f83011262000598578081fd5b81356020620005b1620005ab8362000b5c565b62000b28565b80838252828201915082860187848660051b8901011115620005d1578586fd5b855b858110156200061757813567ffffffffffffffff811115620005f3578788fd5b620006038a87838c010162000688565b8552509284019290840190600101620005d3565b5090979650505050505050565b600082601f83011262000635578081fd5b8135602062000648620005ab8362000b5c565b80838252828201915082860187848660051b890101111562000668578586fd5b855b8581101562000617578135845292840192908401906001016200066a565b600082601f83011262000699578081fd5b813567ffffffffffffffff811115620006b657620006b662000bab565b620006cb601f8201601f191660200162000b28565b818152846020838601011115620006e0578283fd5b816020850160208301379081016020019190915292915050565b6000602082840312156200070c578081fd5b81356001600160a01b038116811462000723578182fd5b9392505050565b6000602082840312156200073c578081fd5b8151801515811462000723578182fd5b600080600080600080600080610100898b03121562000769578384fd5b883567ffffffffffffffff8082111562000781578586fd5b6200078f8c838d0162000688565b995060208b0135915080821115620007a5578586fd5b620007b38c838d0162000688565b985060408b0135915080821115620007c9578586fd5b620007d78c838d0162000688565b975060608b0135915080821115620007ed578586fd5b620007fb8c838d0162000587565b965060808b013591508082111562000811578586fd5b6200081f8c838d0162000587565b955060a08b013591508082111562000835578485fd5b620008438c838d0162000587565b945060c08b013591508082111562000859578384fd5b620008678c838d0162000624565b935060e08b01359150808211156200087d578283fd5b506200088c8b828c0162000624565b9150509295985092959890939650565b600060208284031215620008ae578081fd5b5035919050565b600060208284031215620008c7578081fd5b5051919050565b600081518084526020808501808196508360051b81019150828601855b85811015620009195782840389526200090684835162000962565b98850198935090840190600101620008eb565b5091979650505050505050565b6000815180845260208085019450808401835b83811015620009575781518752958201959082019060010162000939565b509495945050505050565b60008151808452815b8181101562000989576020818501810151868301820152016200096b565b818111156200099b5782602083870101525b50601f01601f19169290920160200192915050565b6001600160a01b038a16815261012060208201819052600090620009d78382018c62000962565b90508281036040840152620009ed818b62000962565b9050828103606084015262000a03818a62000962565b9050828103608084015262000a198189620008ce565b905082810360a084015262000a2f8188620008ce565b905082810360c084015262000a458187620008ce565b905082810360e084015262000a5b818662000926565b905082810361010084015262000a72818562000926565b9c9b505050505050505050505050565b6020808252825182820181905260009190848201906040850190845b8181101562000ac55783516001600160a01b03168352928401929184019160010162000a9e565b50909695505050505050565b602080825282518282018190526000919060409081850190868401855b828110156200091957815180516001600160a01b031685528681015187860152850151858501526060909301929085019060010162000aee565b604051601f8201601f1916810167ffffffffffffffff8111828210171562000b545762000b5462000bab565b604052919050565b600067ffffffffffffffff82111562000b795762000b7962000bab565b5060051b60200190565b600060001982141562000ba457634e487b7160e01b81526011600452602481fd5b5060010190565b634e487b7160e01b600052604160045260246000fdfe60a06040819052600060808190526200001b9160029162000722565b506040805160208101918290526000908190526200003c9160039162000722565b503480156200004a57600080fd5b5060405162005384380380620053848339810160408190526200006d9162000965565b600085511180156200008157506003855111155b80156200008f575083518551145b80156200009d575082518551145b8015620000ab575081518551145b8015620000b9575080518551145b620000fa5760405162461bcd60e51b815260206004820152600c60248201526b3632b733ba341032b93937b960a11b60448201526064015b60405180910390fd5b87516200010f9060029060208b019062000722565b508651620001259060039060208a019062000722565b5060018054336001600160a01b031991821617909155600080549091166001600160a01b038b16178155604080518082018252600581526420b236b4b760d91b6020808301919091528251808401909352600383526241444d60e81b90830152620001a092909190899068056bc75e2d6310000090620002c6565b600054620001b7906001600160a01b031662000482565b60005b8551811015620002b657620002a1868281518110620001e957634e487b7160e01b600052603260045260246000fd5b60200260200101518683815181106200021257634e487b7160e01b600052603260045260246000fd5b60200260200101518684815181106200023b57634e487b7160e01b600052603260045260246000fd5b60200260200101518685815181106200026457634e487b7160e01b600052603260045260246000fd5b60200260200101518686815181106200028d57634e487b7160e01b600052603260045260246000fd5b6020026020010151620002c660201b60201c565b80620002ad8162000ce5565b915050620001ba565b5050505050505050505062000d2f565b6000546001600160a01b0316331480620002ea57506001546001600160a01b031633145b620003245760405162461bcd60e51b815260206004820152600960248201526827b7363ca0b236b4b760b91b6044820152606401620000f1565b600085856040516200033690620007b1565b6200034392919062000af6565b604051809103906000f08015801562000360573d6000803e3d6000fd5b506040805160c0810182526001600160a01b03838116825260208083018b81529383018a9052606083018990526080830188905260a083018790526004805460018101825560009190915283517f8a35acfbc15ff81a39ae7d344fd709f28e8600b4aa8c65c6b64bfe7fe36bd19b600690920291820180546001600160a01b031916919094161783559351805195965092948594929362000426937f8a35acfbc15ff81a39ae7d344fd709f28e8600b4aa8c65c6b64bfe7fe36bd19c0192019062000722565b50604082015180516200044491600284019160209091019062000722565b50606082015180516200046291600384019160209091019062000722565b506080820151816004015560a08201518160050155505050505050505050565b6000546001600160a01b0316331480620004a657506001546001600160a01b031633145b620004e05760405162461bcd60e51b815260206004820152600960248201526827b7363ca0b236b4b760b91b6044820152606401620000f1565b620004ed816000620004f0565b50565b600081815260076020526040812054620005108364e8d4a5100062000c53565b6200051c919062000c38565b9050600482815481106200054057634e487b7160e01b600052603260045260246000fd5b6000918252602090912060069091020154604051630f38ca0d60e31b81526001600160a01b03858116600483015260248201849052909116906379c6506890604401600060405180830381600087803b1580156200059d57600080fd5b505af1158015620005b2573d6000803e3d6000fd5b5050505060048281548110620005d857634e487b7160e01b600052603260045260246000fd5b6000918252602090912060069091020154600480546001600160a01b039092169163162094c4918491869081106200062057634e487b7160e01b600052603260045260246000fd5b90600052602060002090600602016003016040518363ffffffff1660e01b81526004016200065092919062000b28565b600060405180830381600087803b1580156200066b57600080fd5b505af115801562000680573d6000803e3d6000fd5b50505050600060048381548110620006a857634e487b7160e01b600052603260045260246000fd5b90600052602060002090600602016004015490508042620006ca919062000c38565b6000838152600860209081526040808320939093556001600160a01b0387168252600581528282208690556006815282822085905585825260079052908120805491620007178362000ce5565b919050555050505050565b828054620007309062000ca8565b90600052602060002090601f0160209004810192826200075457600085556200079f565b82601f106200076f57805160ff19168380011785556200079f565b828001600101855582156200079f579182015b828111156200079f57825182559160200191906001019062000782565b50620007ad929150620007bf565b5090565b6118808062003b0483390190565b5b80821115620007ad5760008155600101620007c0565b80516001600160a01b0381168114620007ee57600080fd5b919050565b600082601f83011262000804578081fd5b815160206200081d620008178362000c12565b62000bdf565b80838252828201915082860187848660051b89010111156200083d578586fd5b855b85811015620008825781516001600160401b038111156200085e578788fd5b6200086e8a87838c0101620008f3565b85525092840192908401906001016200083f565b5090979650505050505050565b600082601f830112620008a0578081fd5b81516020620008b3620008178362000c12565b80838252828201915082860187848660051b8901011115620008d3578586fd5b855b858110156200088257815184529284019290840190600101620008d5565b600082601f83011262000904578081fd5b81516001600160401b0381111562000920576200092062000d19565b62000935601f8201601f191660200162000bdf565b8181528460208386010111156200094a578283fd5b6200095d82602083016020870162000c75565b949350505050565b60008060008060008060008060006101208a8c03121562000984578485fd5b6200098f8a620007d6565b60208b01519099506001600160401b0380821115620009ac578687fd5b620009ba8d838e01620008f3565b995060408c0151915080821115620009d0578687fd5b620009de8d838e01620008f3565b985060608c0151915080821115620009f4578687fd5b62000a028d838e01620008f3565b975060808c015191508082111562000a18578687fd5b62000a268d838e01620007f3565b965060a08c015191508082111562000a3c578586fd5b62000a4a8d838e01620007f3565b955060c08c015191508082111562000a60578485fd5b62000a6e8d838e01620007f3565b945060e08c015191508082111562000a84578384fd5b62000a928d838e016200088f565b93506101008c015191508082111562000aa9578283fd5b5062000ab88c828d016200088f565b9150509295985092959850929598565b6000815180845262000ae281602086016020860162000c75565b601f01601f19169290920160200192915050565b60408152600062000b0b604083018562000ac8565b828103602084015262000b1f818562000ac8565b95945050505050565b8281526000602060408184015281845483600182811c91508083168062000b5057607f831692505b85831081141562000b6f57634e487b7160e01b87526022600452602487fd5b604088018390526060880181801562000b91576001811462000ba35762000bcf565b60ff1986168252878201965062000bcf565b60008b815260209020895b8681101562000bc95781548482015290850190890162000bae565b83019750505b50949a9950505050505050505050565b604051601f8201601f191681016001600160401b038111828210171562000c0a5762000c0a62000d19565b604052919050565b60006001600160401b0382111562000c2e5762000c2e62000d19565b5060051b60200190565b6000821982111562000c4e5762000c4e62000d03565b500190565b600081600019048311821515161562000c705762000c7062000d03565b500290565b60005b8381101562000c9257818101518382015260200162000c78565b8381111562000ca2576000848401525b50505050565b600181811c9082168062000cbd57607f821691505b6020821081141562000cdf57634e487b7160e01b600052602260045260246000fd5b50919050565b600060001982141562000cfc5762000cfc62000d03565b5060010190565b634e487b7160e01b600052601160045260246000fd5b634e487b7160e01b600052604160045260246000fd5b612dc58062000d3f6000396000f3fe608060405260043610620000ef5760003560e01c8063d0888d441162000089578063e22f72981162000060578063e22f729814620002d6578063e8dbe1f2146200030f578063f7dec0ec1462000340578063f851a440146200035757600080fd5b8063d0888d441462000259578063d44b9aa1146200027e578063e0187c4614620002af57600080fd5b8063966dae0e11620000ca578063966dae0e14620001a15780639774003d14620001dc57806399b1adbf1462000203578063d01ad375146200022857600080fd5b80631d8e2f4314620000f4578063376827e9146200013c5780634942fcfb146200017c575b600080fd5b3480156200010157600080fd5b506200012762000113366004620011c3565b600090815260086020526040902054421190565b60405190151581526020015b60405180910390f35b3480156200014957600080fd5b506200016d6200015b366004620011c3565b60076020526000908152604090205481565b60405190815260200162000133565b3480156200018957600080fd5b506200016d6200019b366004620011c3565b62000379565b348015620001ae57600080fd5b50600154620001c3906001600160a01b031681565b6040516001600160a01b03909116815260200162000133565b348015620001e957600080fd5b5062000201620001fb36600462001123565b620003af565b005b3480156200021057600080fd5b506200012762000222366004620010b8565b6200056f565b3480156200023557600080fd5b506200016d62000247366004620010b8565b60066020526000908152604090205481565b3480156200026657600080fd5b506200020162000278366004620010b8565b62000684565b3480156200028b57600080fd5b506200016d6200029d366004620010b8565b60056020526000908152604090205481565b348015620002bc57600080fd5b50620002c7620006f2565b6040516200013391906200122a565b348015620002e357600080fd5b50620002fb620002f5366004620011c3565b6200094b565b6040516200013396959493929190620012fc565b3480156200031c57600080fd5b506200016d6200032e366004620011c3565b60086020526000908152604090205481565b6200020162000351366004620010d5565b62000b4e565b3480156200036457600080fd5b50600054620001c3906001600160a01b031681565b6000818152600860205260408120544211620003a2575060009081526008602052604090205490565b506000919050565b919050565b6000546001600160a01b0316331480620003d357506001546001600160a01b031633145b620004115760405162461bcd60e51b815260206004820152600960248201526827b7363ca0b236b4b760b91b60448201526064015b60405180910390fd5b60008585604051620004239062000f5d565b6200043092919062001362565b604051809103906000f0801580156200044d573d6000803e3d6000fd5b506040805160c0810182526001600160a01b03838116825260208083018b81529383018a9052606083018990526080830188905260a083018790526004805460018101825560009190915283517f8a35acfbc15ff81a39ae7d344fd709f28e8600b4aa8c65c6b64bfe7fe36bd19b600690920291820180546001600160a01b031916919094161783559351805195965092948594929362000513937f8a35acfbc15ff81a39ae7d344fd709f28e8600b4aa8c65c6b64bfe7fe36bd19c0192019062000f6b565b50604082015180516200053191600284019160209091019062000f6b565b50606082015180516200054f91600384019160209091019062000f6b565b506080820151816004015560a08201518160050155505050505050505050565b6001600160a01b038116600090815260056020526040812054600480548392908110620005ac57634e487b7160e01b600052603260045260246000fd5b60009182526020808320600692830201546001600160a01b03878116855292909152604092839020549251634f558e7960e01b815260048101939093521690634f558e799060240160206040518083038186803b1580156200060d57600080fd5b505afa15801562000622573d6000803e3d6000fd5b505050506040513d601f19601f8201168201806040525081019062000648919062001101565b90508080156200067d57506001600160a01b038316600090815260066020908152604080832054835260089091529020544211155b9392505050565b6000546001600160a01b0316331480620006a857506001546001600160a01b031633145b620006e25760405162461bcd60e51b815260206004820152600960248201526827b7363ca0b236b4b760b91b604482015260640162000408565b620006ef81600062000d2b565b50565b60606004805480602002602001604051908101604052809291908181526020016000905b82821015620009425760008481526020908190206040805160c081019091526006850290910180546001600160a01b031682526001810180549293919291840191620007629062001488565b80601f0160208091040260200160405190810160405280929190818152602001828054620007909062001488565b8015620007e15780601f10620007b557610100808354040283529160200191620007e1565b820191906000526020600020905b815481529060010190602001808311620007c357829003601f168201915b50505050508152602001600282018054620007fc9062001488565b80601f01602080910402602001604051908101604052809291908181526020018280546200082a9062001488565b80156200087b5780601f106200084f576101008083540402835291602001916200087b565b820191906000526020600020905b8154815290600101906020018083116200085d57829003601f168201915b50505050508152602001600382018054620008969062001488565b80601f0160208091040260200160405190810160405280929190818152602001828054620008c49062001488565b8015620009155780601f10620008e95761010080835404028352916020019162000915565b820191906000526020600020905b815481529060010190602001808311620008f757829003601f168201915b50505050508152602001600482015481526020016005820154815250508152602001906001019062000716565b50505050905090565b600481815481106200095c57600080fd5b6000918252602090912060069091020180546001820180546001600160a01b039092169350906200098d9062001488565b80601f0160208091040260200160405190810160405280929190818152602001828054620009bb9062001488565b801562000a0c5780601f10620009e05761010080835404028352916020019162000a0c565b820191906000526020600020905b815481529060010190602001808311620009ee57829003601f168201915b50505050509080600201805462000a239062001488565b80601f016020809104026020016040519081016040528092919081815260200182805462000a519062001488565b801562000aa25780601f1062000a765761010080835404028352916020019162000aa2565b820191906000526020600020905b81548152906001019060200180831162000a8457829003601f168201915b50505050509080600301805462000ab99062001488565b80601f016020809104026020016040519081016040528092919081815260200182805462000ae79062001488565b801562000b385780601f1062000b0c5761010080835404028352916020019162000b38565b820191906000526020600020905b81548152906001019060200180831162000b1a57829003601f168201915b5050505050908060040154908060050154905086565b600454811062000ba15760405162461bcd60e51b815260206004820152601860248201527f496e76616c6964206d656d6265727368697020747970652e0000000000000000604482015260640162000408565b6004818154811062000bc357634e487b7160e01b600052603260045260246000fd5b90600052602060002090600602016005015434101562000c1e5760405162461bcd60e51b815260206004820152601560248201527424b739bab33334b1b4b2b73a103830bcb6b2b73a1760591b604482015260640162000408565b8062000c605760405162461bcd60e51b815260206004820152601060248201526f21b0b713ba1036b4b73a1030b236b4b760811b604482015260640162000408565b6001600160a01b0382166000908152600560205260409020541562000d1b576001600160a01b03821660009081526006602090815260408083205483526008909152902054421162000d1b5760405162461bcd60e51b815260206004820152603a60248201527f4e4654204e6f742045787069726564207965742c20776520646f6e277420737560448201527f70706f7274206475706c69636174652061636365737320796574000000000000606482015260840162000408565b62000d27828262000d2b565b5050565b60008181526007602052604081205462000d4b8364e8d4a5100062001466565b62000d5791906200144b565b90506004828154811062000d7b57634e487b7160e01b600052603260045260246000fd5b6000918252602090912060069091020154604051630f38ca0d60e31b81526001600160a01b03858116600483015260248201849052909116906379c6506890604401600060405180830381600087803b15801562000dd857600080fd5b505af115801562000ded573d6000803e3d6000fd5b505050506004828154811062000e1357634e487b7160e01b600052603260045260246000fd5b6000918252602090912060069091020154600480546001600160a01b039092169163162094c49184918690811062000e5b57634e487b7160e01b600052603260045260246000fd5b90600052602060002090600602016003016040518363ffffffff1660e01b815260040162000e8b92919062001394565b600060405180830381600087803b15801562000ea657600080fd5b505af115801562000ebb573d6000803e3d6000fd5b5050505060006004838154811062000ee357634e487b7160e01b600052603260045260246000fd5b9060005260206000209060060201600401549050804262000f0591906200144b565b6000838152600860209081526040808320939093556001600160a01b038716825260058152828220869055600681528282208590558582526007905290812080549162000f5283620014c5565b919050555050505050565b611880806200151083390190565b82805462000f799062001488565b90600052602060002090601f01602090048101928262000f9d576000855562000fe8565b82601f1062000fb857805160ff191683800117855562000fe8565b8280016001018555821562000fe8579182015b8281111562000fe857825182559160200191906001019062000fcb565b5062000ff692915062000ffa565b5090565b5b8082111562000ff6576000815560010162000ffb565b80356001600160a01b0381168114620003aa57600080fd5b600082601f8301126200103a578081fd5b813567ffffffffffffffff80821115620010585762001058620014f9565b604051601f8301601f19908116603f01168101908282118183101715620010835762001083620014f9565b816040528381528660208588010111156200109c578485fd5b8360208701602083013792830160200193909352509392505050565b600060208284031215620010ca578081fd5b6200067d8262001011565b60008060408385031215620010e8578081fd5b620010f38362001011565b946020939093013593505050565b60006020828403121562001113578081fd5b815180151581146200067d578182fd5b600080600080600060a086880312156200113b578081fd5b853567ffffffffffffffff8082111562001153578283fd5b6200116189838a0162001029565b9650602088013591508082111562001177578283fd5b6200118589838a0162001029565b955060408801359150808211156200119b578283fd5b50620011aa8882890162001029565b9598949750949560608101359550608001359392505050565b600060208284031215620011d5578081fd5b5035919050565b60008151808452815b818110156200120357602081850181015186830182015201620011e5565b81811115620012155782602083870101525b50601f01601f19169290920160200192915050565b60006020808301818452808551808352604092508286019150828160051b870101848801865b83811015620012ee57888303603f19018552815180516001600160a01b031684528781015160c0898601819052906200128c82870182620011dc565b9150508782015185820389870152620012a68282620011dc565b91505060608083015186830382880152620012c28382620011dc565b6080858101519089015260a0948501519490970193909352505050938601939086019060010162001250565b509098975050505050505050565b6001600160a01b038716815260c0602082018190526000906200132290830188620011dc565b8281036040840152620013368188620011dc565b905082810360608401526200134c8187620011dc565b6080840195909552505060a00152949350505050565b604081526000620013776040830185620011dc565b82810360208401526200138b8185620011dc565b95945050505050565b8281526000602060408184015281845483600182811c915080831680620013bc57607f831692505b858310811415620013db57634e487b7160e01b87526022600452602487fd5b6040880183905260608801818015620013fd57600181146200140f576200143b565b60ff198616825287820196506200143b565b60008b815260209020895b8681101562001435578154848201529085019089016200141a565b83019750505b50949a9950505050505050505050565b60008219821115620014615762001461620014e3565b500190565b6000816000190483118215151615620014835762001483620014e3565b500290565b600181811c908216806200149d57607f821691505b60208210811415620014bf57634e487b7160e01b600052602260045260246000fd5b50919050565b6000600019821415620014dc57620014dc620014e3565b5060010190565b634e487b7160e01b600052601160045260246000fd5b634e487b7160e01b600052604160045260246000fdfe60806040523480156200001157600080fd5b5060405162001880380380620018808339810160408190526200003491620001c7565b8151829082906200004d9060009060208501906200006e565b508051620000639060019060208401906200006e565b505050505062000281565b8280546200007c906200022e565b90600052602060002090601f016020900481019282620000a05760008555620000eb565b82601f10620000bb57805160ff1916838001178555620000eb565b82800160010185558215620000eb579182015b82811115620000eb578251825591602001919060010190620000ce565b50620000f9929150620000fd565b5090565b5b80821115620000f95760008155600101620000fe565b600082601f83011262000125578081fd5b81516001600160401b03808211156200014257620001426200026b565b604051601f8301601f19908116603f011681019082821181831017156200016d576200016d6200026b565b8160405283815260209250868385880101111562000189578485fd5b8491505b83821015620001ac57858201830151818301840152908201906200018d565b83821115620001bd57848385830101525b9695505050505050565b60008060408385031215620001da578182fd5b82516001600160401b0380821115620001f1578384fd5b620001ff8683870162000114565b9350602085015191508082111562000215578283fd5b50620002248582860162000114565b9150509250929050565b600181811c908216806200024357607f821691505b602082108114156200026557634e487b7160e01b600052602260045260246000fd5b50919050565b634e487b7160e01b600052604160045260246000fd5b6115ef80620002916000396000f3fe608060405234801561001057600080fd5b50600436106101005760003560e01c80636352211e11610097578063a22cb46511610066578063a22cb4651461021d578063b88d4fde14610230578063c87b56dd14610243578063e985e9c51461025657600080fd5b80636352211e146101ce57806370a08231146101e157806379c650681461020257806395d89b411461021557600080fd5b8063162094c4116100d3578063162094c41461018257806323b872dd1461019557806342842e0e146101a85780634f558e79146101bb57600080fd5b806301ffc9a71461010557806306fdde031461012d578063081812fc14610142578063095ea7b31461016d575b600080fd5b6101186101133660046112ef565b610292565b60405190151581526020015b60405180910390f35b6101356102e4565b604051610124919061142f565b610155610150366004611327565b610376565b6040516001600160a01b039091168152602001610124565b61018061017b3660046112c6565b61039d565b005b61018061019036600461133f565b6104b8565b6101806101a33660046111d8565b6104c6565b6101806101b63660046111d8565b6104f7565b6101186101c9366004611327565b610512565b6101556101dc366004611327565b610531565b6101f46101ef36600461118c565b610591565b604051908152602001610124565b6101806102103660046112c6565b610617565b610135610621565b61018061022b36600461128c565b610630565b61018061023e366004611213565b61063b565b610135610251366004611327565b610673565b6101186102643660046111a6565b6001600160a01b03918216600090815260056020908152604080832093909416825291909152205460ff1690565b60006001600160e01b031982166380ac58cd60e01b14806102c357506001600160e01b03198216635b5e139f60e01b145b806102de57506301ffc9a760e01b6001600160e01b03198316145b92915050565b6060600080546102f390611552565b80601f016020809104026020016040519081016040528092919081815260200182805461031f90611552565b801561036c5780601f106103415761010080835404028352916020019161036c565b820191906000526020600020905b81548152906001019060200180831161034f57829003601f168201915b5050505050905090565b600061038182610784565b506000908152600460205260409020546001600160a01b031690565b60006103a882610531565b9050806001600160a01b0316836001600160a01b0316141561041b5760405162461bcd60e51b815260206004820152602160248201527f4552433732313a20617070726f76616c20746f2063757272656e74206f776e656044820152603960f91b60648201526084015b60405180910390fd5b336001600160a01b038216148061043757506104378133610264565b6104a95760405162461bcd60e51b815260206004820152603d60248201527f4552433732313a20617070726f76652063616c6c6572206973206e6f7420746f60448201527f6b656e206f776e6572206f7220617070726f76656420666f7220616c6c0000006064820152608401610412565b6104b383836107e6565b505050565b6104c28282610854565b5050565b6104d033826108ee565b6104ec5760405162461bcd60e51b815260040161041290611442565b6104b383838361096c565b6104b38383836040518060200160405280600081525061063b565b6000818152600260205260408120546001600160a01b031615156102de565b6000818152600260205260408120546001600160a01b0316806102de5760405162461bcd60e51b8152602060048201526018602482015277115490cdcc8c4e881a5b9d985b1a59081d1bdad95b88125160421b6044820152606401610412565b60006001600160a01b0382166105fb5760405162461bcd60e51b815260206004820152602960248201527f4552433732313a2061646472657373207a65726f206973206e6f7420612076616044820152683634b21037bbb732b960b91b6064820152608401610412565b506001600160a01b031660009081526003602052604090205490565b6104c28282610ad0565b6060600180546102f390611552565b6104c2338383610c5b565b61064533836108ee565b6106615760405162461bcd60e51b815260040161041290611442565b61066d84848484610d2a565b50505050565b606061067e82610784565b6000828152600660205260408120805461069790611552565b80601f01602080910402602001604051908101604052809291908181526020018280546106c390611552565b80156107105780601f106106e557610100808354040283529160200191610710565b820191906000526020600020905b8154815290600101906020018083116106f357829003601f168201915b50505050509050600061072e60408051602081019091526000815290565b9050805160001415610741575092915050565b81511561077357808260405160200161075b9291906113c3565b60405160208183030381529060405292505050919050565b61077c84610d5d565b949350505050565b6000818152600260205260409020546001600160a01b03166107e35760405162461bcd60e51b8152602060048201526018602482015277115490cdcc8c4e881a5b9d985b1a59081d1bdad95b88125160421b6044820152606401610412565b50565b600081815260046020526040902080546001600160a01b0319166001600160a01b038416908117909155819061081b82610531565b6001600160a01b03167f8c5be1e5ebec7d5bd14f71427d1e84f3dd0314c0f7b2291e5b200ac8c7c3b92560405160405180910390a45050565b6000828152600260205260409020546001600160a01b03166108cf5760405162461bcd60e51b815260206004820152602e60248201527f45524337323155524953746f726167653a2055524920736574206f66206e6f6e60448201526d32bc34b9ba32b73a103a37b5b2b760911b6064820152608401610412565b600082815260066020908152604090912082516104b392840190611061565b6000806108fa83610531565b9050806001600160a01b0316846001600160a01b0316148061094157506001600160a01b0380821660009081526005602090815260408083209388168352929052205460ff165b8061077c5750836001600160a01b031661095a84610376565b6001600160a01b031614949350505050565b826001600160a01b031661097f82610531565b6001600160a01b0316146109a55760405162461bcd60e51b8152600401610412906114e1565b6001600160a01b038216610a075760405162461bcd60e51b8152602060048201526024808201527f4552433732313a207472616e7366657220746f20746865207a65726f206164646044820152637265737360e01b6064820152608401610412565b826001600160a01b0316610a1a82610531565b6001600160a01b031614610a405760405162461bcd60e51b8152600401610412906114e1565b600081815260046020908152604080832080546001600160a01b03199081169091556001600160a01b0387811680865260038552838620805460001901905590871680865283862080546001019055868652600290945282852080549092168417909155905184937fddf252ad1be2c89b69c2b068fc378daa952ba7f163c4a11628f55a4df523b3ef91a4505050565b6001600160a01b038216610b265760405162461bcd60e51b815260206004820181905260248201527f4552433732313a206d696e7420746f20746865207a65726f20616464726573736044820152606401610412565b6000818152600260205260409020546001600160a01b031615610b8b5760405162461bcd60e51b815260206004820152601c60248201527f4552433732313a20746f6b656e20616c7265616479206d696e746564000000006044820152606401610412565b6000818152600260205260409020546001600160a01b031615610bf05760405162461bcd60e51b815260206004820152601c60248201527f4552433732313a20746f6b656e20616c7265616479206d696e746564000000006044820152606401610412565b6001600160a01b038216600081815260036020908152604080832080546001019055848352600290915280822080546001600160a01b0319168417905551839291907fddf252ad1be2c89b69c2b068fc378daa952ba7f163c4a11628f55a4df523b3ef908290a45050565b816001600160a01b0316836001600160a01b03161415610cbd5760405162461bcd60e51b815260206004820152601960248201527f4552433732313a20617070726f766520746f2063616c6c6572000000000000006044820152606401610412565b6001600160a01b03838116600081815260056020908152604080832094871680845294825291829020805460ff191686151590811790915591519182527f17307eab39ab6107e8899845ad3d59bd9653f200f220920489ca2b5937696c31910160405180910390a3505050565b610d3584848461096c565b610d4184848484610dd1565b61066d5760405162461bcd60e51b81526004016104129061148f565b6060610d6882610784565b6000610d7f60408051602081019091526000815290565b90506000815111610d9f5760405180602001604052806000815250610dca565b80610da984610ede565b604051602001610dba9291906113c3565b6040516020818303038152906040525b9392505050565b60006001600160a01b0384163b15610ed357604051630a85bd0160e11b81526001600160a01b0385169063150b7a0290610e159033908990889088906004016113f2565b602060405180830381600087803b158015610e2f57600080fd5b505af1925050508015610e5f575060408051601f3d908101601f19168201909252610e5c9181019061130b565b60015b610eb9573d808015610e8d576040519150601f19603f3d011682016040523d82523d6000602084013e610e92565b606091505b508051610eb15760405162461bcd60e51b81526004016104129061148f565b805181602001fd5b6001600160e01b031916630a85bd0160e11b14905061077c565b506001949350505050565b60606000610eeb83610f89565b600101905060008167ffffffffffffffff811115610f1957634e487b7160e01b600052604160045260246000fd5b6040519080825280601f01601f191660200182016040528015610f43576020820181803683370190505b5090508181016020015b600019016f181899199a1a9b1b9c1cb0b131b232b360811b600a86061a8153600a8504945084610f7c57610f81565b610f4d565b509392505050565b60008072184f03e93ff9f4daa797ed6e38ed64bf6a1f0160401b8310610fc85772184f03e93ff9f4daa797ed6e38ed64bf6a1f0160401b830492506040015b6d04ee2d6d415b85acef81000000008310610ff4576d04ee2d6d415b85acef8100000000830492506020015b662386f26fc10000831061101257662386f26fc10000830492506010015b6305f5e100831061102a576305f5e100830492506008015b612710831061103e57612710830492506004015b60648310611050576064830492506002015b600a83106102de5760010192915050565b82805461106d90611552565b90600052602060002090601f01602090048101928261108f57600085556110d5565b82601f106110a857805160ff19168380011785556110d5565b828001600101855582156110d5579182015b828111156110d55782518255916020019190600101906110ba565b506110e19291506110e5565b5090565b5b808211156110e157600081556001016110e6565b600067ffffffffffffffff808411156111155761111561158d565b604051601f8501601f19908116603f0116810190828211818310171561113d5761113d61158d565b8160405280935085815286868601111561115657600080fd5b858560208301376000602087830101525050509392505050565b80356001600160a01b038116811461118757600080fd5b919050565b60006020828403121561119d578081fd5b610dca82611170565b600080604083850312156111b8578081fd5b6111c183611170565b91506111cf60208401611170565b90509250929050565b6000806000606084860312156111ec578081fd5b6111f584611170565b925061120360208501611170565b9150604084013590509250925092565b60008060008060808587031215611228578081fd5b61123185611170565b935061123f60208601611170565b925060408501359150606085013567ffffffffffffffff811115611261578182fd5b8501601f81018713611271578182fd5b611280878235602084016110fa565b91505092959194509250565b6000806040838503121561129e578182fd5b6112a783611170565b9150602083013580151581146112bb578182fd5b809150509250929050565b600080604083850312156112d8578182fd5b6112e183611170565b946020939093013593505050565b600060208284031215611300578081fd5b8135610dca816115a3565b60006020828403121561131c578081fd5b8151610dca816115a3565b600060208284031215611338578081fd5b5035919050565b60008060408385031215611351578182fd5b82359150602083013567ffffffffffffffff81111561136e578182fd5b8301601f8101851361137e578182fd5b61138d858235602084016110fa565b9150509250929050565b600081518084526113af816020860160208601611526565b601f01601f19169290920160200192915050565b600083516113d5818460208801611526565b8351908301906113e9818360208801611526565b01949350505050565b6001600160a01b038581168252841660208201526040810183905260806060820181905260009061142590830184611397565b9695505050505050565b602081526000610dca6020830184611397565b6020808252602d908201527f4552433732313a2063616c6c6572206973206e6f7420746f6b656e206f776e6560408201526c1c881bdc88185c1c1c9bdd9959609a1b606082015260800190565b60208082526032908201527f4552433732313a207472616e7366657220746f206e6f6e20455243373231526560408201527131b2b4bb32b91034b6b83632b6b2b73a32b960711b606082015260800190565b60208082526025908201527f4552433732313a207472616e736665722066726f6d20696e636f72726563742060408201526437bbb732b960d91b606082015260800190565b60005b83811015611541578181015183820152602001611529565b8381111561066d5750506000910152565b600181811c9082168061156657607f821691505b6020821081141561158757634e487b7160e01b600052602260045260246000fd5b50919050565b634e487b7160e01b600052604160045260246000fd5b6001600160e01b0319811681146107e357600080fdfea2646970667358221220e7439d32ced5e556836fa627b72d7f4b38d8bf3eb3e509e022c776c05e31410464736f6c63430008040033a264697066735822122036277d491715f2f7fa194e6951a577243b6342660875395ea81e413a1e5f745164736f6c6343000804003360806040523480156200001157600080fd5b5060405162001880380380620018808339810160408190526200003491620001c7565b8151829082906200004d9060009060208501906200006e565b508051620000639060019060208401906200006e565b505050505062000281565b8280546200007c906200022e565b90600052602060002090601f016020900481019282620000a05760008555620000eb565b82601f10620000bb57805160ff1916838001178555620000eb565b82800160010185558215620000eb579182015b82811115620000eb578251825591602001919060010190620000ce565b50620000f9929150620000fd565b5090565b5b80821115620000f95760008155600101620000fe565b600082601f83011262000125578081fd5b81516001600160401b03808211156200014257620001426200026b565b604051601f8301601f19908116603f011681019082821181831017156200016d576200016d6200026b565b8160405283815260209250868385880101111562000189578485fd5b8491505b83821015620001ac57858201830151818301840152908201906200018d565b83821115620001bd57848385830101525b9695505050505050565b60008060408385031215620001da578182fd5b82516001600160401b0380821115620001f1578384fd5b620001ff8683870162000114565b9350602085015191508082111562000215578283fd5b50620002248582860162000114565b9150509250929050565b600181811c908216806200024357607f821691505b602082108114156200026557634e487b7160e01b600052602260045260246000fd5b50919050565b634e487b7160e01b600052604160045260246000fd5b6115ef80620002916000396000f3fe608060405234801561001057600080fd5b50600436106101005760003560e01c80636352211e11610097578063a22cb46511610066578063a22cb4651461021d578063b88d4fde14610230578063c87b56dd14610243578063e985e9c51461025657600080fd5b80636352211e146101ce57806370a08231146101e157806379c650681461020257806395d89b411461021557600080fd5b8063162094c4116100d3578063162094c41461018257806323b872dd1461019557806342842e0e146101a85780634f558e79146101bb57600080fd5b806301ffc9a71461010557806306fdde031461012d578063081812fc14610142578063095ea7b31461016d575b600080fd5b6101186101133660046112ef565b610292565b60405190151581526020015b60405180910390f35b6101356102e4565b604051610124919061142f565b610155610150366004611327565b610376565b6040516001600160a01b039091168152602001610124565b61018061017b3660046112c6565b61039d565b005b61018061019036600461133f565b6104b8565b6101806101a33660046111d8565b6104c6565b6101806101b63660046111d8565b6104f7565b6101186101c9366004611327565b610512565b6101556101dc366004611327565b610531565b6101f46101ef36600461118c565b610591565b604051908152602001610124565b6101806102103660046112c6565b610617565b610135610621565b61018061022b36600461128c565b610630565b61018061023e366004611213565b61063b565b610135610251366004611327565b610673565b6101186102643660046111a6565b6001600160a01b03918216600090815260056020908152604080832093909416825291909152205460ff1690565b60006001600160e01b031982166380ac58cd60e01b14806102c357506001600160e01b03198216635b5e139f60e01b145b806102de57506301ffc9a760e01b6001600160e01b03198316145b92915050565b6060600080546102f390611552565b80601f016020809104026020016040519081016040528092919081815260200182805461031f90611552565b801561036c5780601f106103415761010080835404028352916020019161036c565b820191906000526020600020905b81548152906001019060200180831161034f57829003601f168201915b5050505050905090565b600061038182610784565b506000908152600460205260409020546001600160a01b031690565b60006103a882610531565b9050806001600160a01b0316836001600160a01b0316141561041b5760405162461bcd60e51b815260206004820152602160248201527f4552433732313a20617070726f76616c20746f2063757272656e74206f776e656044820152603960f91b60648201526084015b60405180910390fd5b336001600160a01b038216148061043757506104378133610264565b6104a95760405162461bcd60e51b815260206004820152603d60248201527f4552433732313a20617070726f76652063616c6c6572206973206e6f7420746f60448201527f6b656e206f776e6572206f7220617070726f76656420666f7220616c6c0000006064820152608401610412565b6104b383836107e6565b505050565b6104c28282610854565b5050565b6104d033826108ee565b6104ec5760405162461bcd60e51b815260040161041290611442565b6104b383838361096c565b6104b38383836040518060200160405280600081525061063b565b6000818152600260205260408120546001600160a01b031615156102de565b6000818152600260205260408120546001600160a01b0316806102de5760405162461bcd60e51b8152602060048201526018602482015277115490cdcc8c4e881a5b9d985b1a59081d1bdad95b88125160421b6044820152606401610412565b60006001600160a01b0382166105fb5760405162461bcd60e51b815260206004820152602960248201527f4552433732313a2061646472657373207a65726f206973206e6f7420612076616044820152683634b21037bbb732b960b91b6064820152608401610412565b506001600160a01b031660009081526003602052604090205490565b6104c28282610ad0565b6060600180546102f390611552565b6104c2338383610c5b565b61064533836108ee565b6106615760405162461bcd60e51b815260040161041290611442565b61066d84848484610d2a565b50505050565b606061067e82610784565b6000828152600660205260408120805461069790611552565b80601f01602080910402602001604051908101604052809291908181526020018280546106c390611552565b80156107105780601f106106e557610100808354040283529160200191610710565b820191906000526020600020905b8154815290600101906020018083116106f357829003601f168201915b50505050509050600061072e60408051602081019091526000815290565b9050805160001415610741575092915050565b81511561077357808260405160200161075b9291906113c3565b60405160208183030381529060405292505050919050565b61077c84610d5d565b949350505050565b6000818152600260205260409020546001600160a01b03166107e35760405162461bcd60e51b8152602060048201526018602482015277115490cdcc8c4e881a5b9d985b1a59081d1bdad95b88125160421b6044820152606401610412565b50565b600081815260046020526040902080546001600160a01b0319166001600160a01b038416908117909155819061081b82610531565b6001600160a01b03167f8c5be1e5ebec7d5bd14f71427d1e84f3dd0314c0f7b2291e5b200ac8c7c3b92560405160405180910390a45050565b6000828152600260205260409020546001600160a01b03166108cf5760405162461bcd60e51b815260206004820152602e60248201527f45524337323155524953746f726167653a2055524920736574206f66206e6f6e60448201526d32bc34b9ba32b73a103a37b5b2b760911b6064820152608401610412565b600082815260066020908152604090912082516104b392840190611061565b6000806108fa83610531565b9050806001600160a01b0316846001600160a01b0316148061094157506001600160a01b0380821660009081526005602090815260408083209388168352929052205460ff165b8061077c5750836001600160a01b031661095a84610376565b6001600160a01b031614949350505050565b826001600160a01b031661097f82610531565b6001600160a01b0316146109a55760405162461bcd60e51b8152600401610412906114e1565b6001600160a01b038216610a075760405162461bcd60e51b8152602060048201526024808201527f4552433732313a207472616e7366657220746f20746865207a65726f206164646044820152637265737360e01b6064820152608401610412565b826001600160a01b0316610a1a82610531565b6001600160a01b031614610a405760405162461bcd60e51b8152600401610412906114e1565b600081815260046020908152604080832080546001600160a01b03199081169091556001600160a01b0387811680865260038552838620805460001901905590871680865283862080546001019055868652600290945282852080549092168417909155905184937fddf252ad1be2c89b69c2b068fc378daa952ba7f163c4a11628f55a4df523b3ef91a4505050565b6001600160a01b038216610b265760405162461bcd60e51b815260206004820181905260248201527f4552433732313a206d696e7420746f20746865207a65726f20616464726573736044820152606401610412565b6000818152600260205260409020546001600160a01b031615610b8b5760405162461bcd60e51b815260206004820152601c60248201527f4552433732313a20746f6b656e20616c7265616479206d696e746564000000006044820152606401610412565b6000818152600260205260409020546001600160a01b031615610bf05760405162461bcd60e51b815260206004820152601c60248201527f4552433732313a20746f6b656e20616c7265616479206d696e746564000000006044820152606401610412565b6001600160a01b038216600081815260036020908152604080832080546001019055848352600290915280822080546001600160a01b0319168417905551839291907fddf252ad1be2c89b69c2b068fc378daa952ba7f163c4a11628f55a4df523b3ef908290a45050565b816001600160a01b0316836001600160a01b03161415610cbd5760405162461bcd60e51b815260206004820152601960248201527f4552433732313a20617070726f766520746f2063616c6c6572000000000000006044820152606401610412565b6001600160a01b03838116600081815260056020908152604080832094871680845294825291829020805460ff191686151590811790915591519182527f17307eab39ab6107e8899845ad3d59bd9653f200f220920489ca2b5937696c31910160405180910390a3505050565b610d3584848461096c565b610d4184848484610dd1565b61066d5760405162461bcd60e51b81526004016104129061148f565b6060610d6882610784565b6000610d7f60408051602081019091526000815290565b90506000815111610d9f5760405180602001604052806000815250610dca565b80610da984610ede565b604051602001610dba9291906113c3565b6040516020818303038152906040525b9392505050565b60006001600160a01b0384163b15610ed357604051630a85bd0160e11b81526001600160a01b0385169063150b7a0290610e159033908990889088906004016113f2565b602060405180830381600087803b158015610e2f57600080fd5b505af1925050508015610e5f575060408051601f3d908101601f19168201909252610e5c9181019061130b565b60015b610eb9573d808015610e8d576040519150601f19603f3d011682016040523d82523d6000602084013e610e92565b606091505b508051610eb15760405162461bcd60e51b81526004016104129061148f565b805181602001fd5b6001600160e01b031916630a85bd0160e11b14905061077c565b506001949350505050565b60606000610eeb83610f89565b600101905060008167ffffffffffffffff811115610f1957634e487b7160e01b600052604160045260246000fd5b6040519080825280601f01601f191660200182016040528015610f43576020820181803683370190505b5090508181016020015b600019016f181899199a1a9b1b9c1cb0b131b232b360811b600a86061a8153600a8504945084610f7c57610f81565b610f4d565b509392505050565b60008072184f03e93ff9f4daa797ed6e38ed64bf6a1f0160401b8310610fc85772184f03e93ff9f4daa797ed6e38ed64bf6a1f0160401b830492506040015b6d04ee2d6d415b85acef81000000008310610ff4576d04ee2d6d415b85acef8100000000830492506020015b662386f26fc10000831061101257662386f26fc10000830492506010015b6305f5e100831061102a576305f5e100830492506008015b612710831061103e57612710830492506004015b60648310611050576064830492506002015b600a83106102de5760010192915050565b82805461106d90611552565b90600052602060002090601f01602090048101928261108f57600085556110d5565b82601f106110a857805160ff19168380011785556110d5565b828001600101855582156110d5579182015b828111156110d55782518255916020019190600101906110ba565b506110e19291506110e5565b5090565b5b808211156110e157600081556001016110e6565b600067ffffffffffffffff808411156111155761111561158d565b604051601f8501601f19908116603f0116810190828211818310171561113d5761113d61158d565b8160405280935085815286868601111561115657600080fd5b858560208301376000602087830101525050509392505050565b80356001600160a01b038116811461118757600080fd5b919050565b60006020828403121561119d578081fd5b610dca82611170565b600080604083850312156111b8578081fd5b6111c183611170565b91506111cf60208401611170565b90509250929050565b6000806000606084860312156111ec578081fd5b6111f584611170565b925061120360208501611170565b9150604084013590509250925092565b60008060008060808587031215611228578081fd5b61123185611170565b935061123f60208601611170565b925060408501359150606085013567ffffffffffffffff811115611261578182fd5b8501601f81018713611271578182fd5b611280878235602084016110fa565b91505092959194509250565b6000806040838503121561129e578182fd5b6112a783611170565b9150602083013580151581146112bb578182fd5b809150509250929050565b600080604083850312156112d8578182fd5b6112e183611170565b946020939093013593505050565b600060208284031215611300578081fd5b8135610dca816115a3565b60006020828403121561131c578081fd5b8151610dca816115a3565b600060208284031215611338578081fd5b5035919050565b60008060408385031215611351578182fd5b82359150602083013567ffffffffffffffff81111561136e578182fd5b8301601f8101851361137e578182fd5b61138d858235602084016110fa565b9150509250929050565b600081518084526113af816020860160208601611526565b601f01601f19169290920160200192915050565b600083516113d5818460208801611526565b8351908301906113e9818360208801611526565b01949350505050565b6001600160a01b038581168252841660208201526040810183905260806060820181905260009061142590830184611397565b9695505050505050565b602081526000610dca6020830184611397565b6020808252602d908201527f4552433732313a2063616c6c6572206973206e6f7420746f6b656e206f776e6560408201526c1c881bdc88185c1c1c9bdd9959609a1b606082015260800190565b60208082526032908201527f4552433732313a207472616e7366657220746f206e6f6e20455243373231526560408201527131b2b4bb32b91034b6b83632b6b2b73a32b960711b606082015260800190565b60208082526025908201527f4552433732313a207472616e736665722066726f6d20696e636f72726563742060408201526437bbb732b960d91b606082015260800190565b60005b83811015611541578181015183820152602001611529565b8381111561066d5750506000910152565b600181811c9082168061156657607f821691505b6020821081141561158757634e487b7160e01b600052602260045260246000fd5b50919050565b634e487b7160e01b600052604160045260246000fd5b6001600160e01b0319811681146107e357600080fdfea2646970667358221220e7439d32ced5e556836fa627b72d7f4b38d8bf3eb3e509e022c776c05e31410464736f6c63430008040033a2646970667358221220ab53b988321171b09545b8a7f2b705fda48a255e3f195addd61ca991699bfc7564736f6c63430008040033",
  "linkReferences": {},
  "deployedLinkReferences": {}
}