{
  "_format": "hh-sol-artifact-1",
  "contractName": "DAOServerFactory",
  "sourceName": "contracts/DAOServerFactory.sol",
  "abi": [
    {
      "inputs": [
        {
          "internalType": "string",
          "name": "_daoName",
          "type": "string"
        },
        {
          "internalType": "string",
          "name": "_daoDescription",
          "type": "string"
        },
        {
          "internalType": "string",
          "name": "_adminURI",
          "type": "string"
        },
        {
          "internalType": "string[]",
          "name": "_names",
          "type": "string[]"
        },
        {
          "internalType": "string[]",
          "name": "_symbols",
          "type": "string[]"
        },
        {
          "internalType": "string[]",
          "name": "_tokenURIes",
          "type": "string[]"
        },
        {
          "internalType": "uint256[]",
          "name": "_durations",
          "type": "uint256[]"
        },
        {
          "internalType": "uint256[]",
          "name": "_prices",
          "type": "uint256[]"
        }
      ],
      "name": "createDAOServer",
      "outputs": [],
      "stateMutability": "nonpayable",
      "type": "function"
    },
    {
      "inputs": [
        {
          "internalType": "uint256",
          "name": "",
          "type": "uint256"
        }
      ],
      "name": "daoServers",
      "outputs": [
        {
          "internalType": "address",
          "name": "",
          "type": "address"
        }
      ],
      "stateMutability": "view",
      "type": "function"
    },
    {
      "inputs": [],
      "name": "getAllDAOServers",
      "outputs": [
        {
          "internalType": "address[]",
          "name": "",
          "type": "address[]"
        }
      ],
      "stateMutability": "view",
      "type": "function"
    },
    {
      "inputs": [
        {
          "internalType": "address",
          "name": "_user",
          "type": "address"
        }
      ],
      "name": "getUserDAOServerRelations",
      "outputs": [
        {
          "internalType": "address[]",
          "name": "",
          "type": "address[]"
        }
      ],
      "stateMutability": "view",
      "type": "function"
    }
  ],
  "bytecode": "0x608060405234801561001057600080fd5b50615fd0806100206000396000f3fe60806040523480156200001157600080fd5b5060043610620000525760003560e01c806355124c641462000057578063a44dc2141462000079578063c6f2efa81462000090578063d3eea01514620000a9575b600080fd5b62000061620000d9565b604051620000709190620008b0565b60405180910390f35b620000616200008a3660046200054b565b6200013d565b620000a7620000a13660046200059d565b620002fc565b005b620000c0620000ba366004620006ed565b6200039f565b6040516001600160a01b03909116815260200162000070565b606060008054806020026020016040519081016040528092919081815260200182805480156200013357602002820191906000526020600020905b81546001600160a01b0316815260019091019060200180831162000114575b5050505050905090565b600080546060919067ffffffffffffffff8111156200016c57634e487b7160e01b600052604160045260246000fd5b60405190808252806020026020018201604052801562000196578160200160208202803683370190505b50905060005b600054811015620002f5576000808281548110620001ca57634e487b7160e01b600052603260045260246000fd5b6000918252602090912001546040516399b1adbf60e01b81526001600160a01b038781166004830152909116915081906399b1adbf9060240160206040518083038186803b1580156200021c57600080fd5b505afa15801562000231573d6000803e3d6000fd5b505050506040513d601f19601f820116820180604052508101906200025791906200057b565b15620002df57600082815481106200027f57634e487b7160e01b600052603260045260246000fd5b9060005260206000200160009054906101000a90046001600160a01b0316838381518110620002be57634e487b7160e01b600052603260045260246000fd5b60200260200101906001600160a01b031690816001600160a01b0316815250505b5080620002ec816200095a565b9150506200019c565b5092915050565b60003389898989898989896040516200031590620003ca565b6200032999989796959493929190620007de565b604051809103906000f08015801562000346573d6000803e3d6000fd5b50600080546001810182559080527f290decd9548b62a8d60345a988386fc84ba6bc95484008f6362f93160ef3e5630180546001600160a01b0319166001600160a01b0392909216919091179055505050505050505050565b60008181548110620003b057600080fd5b6000918252602090912001546001600160a01b0316905081565b615602806200099983390190565b600082601f830112620003e9578081fd5b8135602062000402620003fc8362000933565b620008ff565b80838252828201915082860187848660051b890101111562000422578586fd5b855b858110156200046857813567ffffffffffffffff81111562000444578788fd5b620004548a87838c0101620004d9565b855250928401929084019060010162000424565b5090979650505050505050565b600082601f83011262000486578081fd5b8135602062000499620003fc8362000933565b80838252828201915082860187848660051b8901011115620004b9578586fd5b855b858110156200046857813584529284019290840190600101620004bb565b600082601f830112620004ea578081fd5b813567ffffffffffffffff81111562000507576200050762000982565b6200051c601f8201601f1916602001620008ff565b81815284602083860101111562000531578283fd5b816020850160208301379081016020019190915292915050565b6000602082840312156200055d578081fd5b81356001600160a01b038116811462000574578182fd5b9392505050565b6000602082840312156200058d578081fd5b8151801515811462000574578182fd5b600080600080600080600080610100898b031215620005ba578384fd5b883567ffffffffffffffff80821115620005d2578586fd5b620005e08c838d01620004d9565b995060208b0135915080821115620005f6578586fd5b620006048c838d01620004d9565b985060408b01359150808211156200061a578586fd5b620006288c838d01620004d9565b975060608b01359150808211156200063e578586fd5b6200064c8c838d01620003d8565b965060808b013591508082111562000662578586fd5b620006708c838d01620003d8565b955060a08b013591508082111562000686578485fd5b620006948c838d01620003d8565b945060c08b0135915080821115620006aa578384fd5b620006b88c838d0162000475565b935060e08b0135915080821115620006ce578283fd5b50620006dd8b828c0162000475565b9150509295985092959890939650565b600060208284031215620006ff578081fd5b5035919050565b600082825180855260208086019550808260051b840101818601855b848110156200046857601f198684030189526200074183835162000790565b9884019892509083019060010162000722565b6000815180845260208085019450808401835b83811015620007855781518752958201959082019060010162000767565b509495945050505050565b60008151808452815b81811015620007b75760208185018101518683018201520162000799565b81811115620007c95782602083870101525b50601f01601f19169290920160200192915050565b6001600160a01b038a16815261012060208201819052600090620008058382018c62000790565b905082810360408401526200081b818b62000790565b9050828103606084015262000831818a62000790565b9050828103608084015262000847818962000706565b905082810360a08401526200085d818862000706565b905082810360c084015262000873818762000706565b905082810360e084015262000889818662000754565b9050828103610100840152620008a0818562000754565b9c9b505050505050505050505050565b6020808252825182820181905260009190848201906040850190845b81811015620008f35783516001600160a01b031683529284019291840191600101620008cc565b50909695505050505050565b604051601f8201601f1916810167ffffffffffffffff811182821017156200092b576200092b62000982565b604052919050565b600067ffffffffffffffff82111562000950576200095062000982565b5060051b60200190565b60006000198214156200097b57634e487b7160e01b81526011600452602481fd5b5060010190565b634e487b7160e01b600052604160045260246000fdfe60a06040819052600060808190526200001b91600191620008e9565b506040805160208101918290526000908190526200003c91600291620008e9565b503480156200004a57600080fd5b5060405162005602380380620056028339810160408190526200006d9162000b2c565b87516200007957600080fd5b85516200008557600080fd5b8351855114620000db5760405162461bcd60e51b81526020600482015260276024820152600080516020620055e283398151915260448201526673796d626f6c7360c81b60648201526084015b60405180910390fd5b8251855114620001305760405162461bcd60e51b815260206004820152602a6024820152600080516020620055e2833981519152604482015269746f6b656e555249657360b01b6064820152608401620000d2565b8151855114620001845760405162461bcd60e51b81526020600482015260296024820152600080516020620055e28339815191526044820152686475726174696f6e7360b81b6064820152608401620000d2565b8051855114620001d55760405162461bcd60e51b81526020600482015260266024820152600080516020620055e283398151915260448201526570726963657360d01b6064820152608401620000d2565b8751620001ea9060019060208b0190620008e9565b508651620002009060029060208a0190620008e9565b50600080546001600160a01b0319166001600160a01b038b1617905562000227866200034d565b6000546200023e906001600160a01b031662000504565b60005b85518110156200033d57620003288682815181106200027057634e487b7160e01b600052603260045260246000fd5b60200260200101518683815181106200029957634e487b7160e01b600052603260045260246000fd5b6020026020010151868481518110620002c257634e487b7160e01b600052603260045260246000fd5b6020026020010151868581518110620002eb57634e487b7160e01b600052603260045260246000fd5b60200260200101518686815181106200031457634e487b7160e01b600052603260045260246000fd5b60200260200101516200073560201b60201c565b80620003348162000e6f565b91505062000241565b5050505050505050505062000ead565b60006040516200035d9062000978565b60408082526005908201526420b236b4b760d91b60608201526080602082018190526003908201526241444d60e81b60a082015260c001604051809103906000f080158015620003b1573d6000803e3d6000fd5b506040805160c0810182526001600160a01b03838116825282518084018452600581526420b236b4b760d91b6020808301919091528084019182528451808601865260038082526241444d60e81b82840152958501526060840188905268056bc75e2d631000006080850152600060a08501819052855460018101875595905283517fc2575a0e9e593c00f959f8c92f12db2869c3395a3b0502d05e2516446f71f85b600690960295860180546001600160a01b0319169190941617835590518051959650929485949293620004ac937fc2575a0e9e593c00f959f8c92f12db2869c3395a3b0502d05e2516446f71f85c01920190620008e9565b5060408201518051620004ca916002840191602090910190620008e9565b5060608201518051620004e8916003840191602090910190620008e9565b506080820151816004015560a082015181600501555050505050565b6000546001600160a01b031633146200055a5760405162461bcd60e51b81526020600482015260226024820152600080516020620055c283398151915260448201526134b760f11b6064820152608401620000d2565b600080805260066020527f54cdd369e4e8a8515e52ca72ec816c2101831ad1f18bf44102ed171459c9b4f854600380548390620005a757634e487b7160e01b600052603260045260246000fd5b6000918252602090912060069091020154604051630f38ca0d60e31b81526001600160a01b03858116600483015260248201849052909116906379c6506890604401600060405180830381600087803b1580156200060457600080fd5b505af115801562000619573d6000803e3d6000fd5b50505050600382815481106200063f57634e487b7160e01b600052603260045260246000fd5b6000918252602090912060069091020154600380546001600160a01b039092169163162094c4918491869081106200068757634e487b7160e01b600052603260045260246000fd5b90600052602060002090600602016003016040518363ffffffff1660e01b8152600401620006b792919062000cef565b600060405180830381600087803b158015620006d257600080fd5b505af1158015620006e7573d6000803e3d6000fd5b505050506001600160a01b038316600090815260046020908152604080832085905560058252808320849055848352600690915281208054916200072b8362000e6f565b9190505550505050565b6000546001600160a01b031633146200078b5760405162461bcd60e51b81526020600482015260226024820152600080516020620055c283398151915260448201526134b760f11b6064820152608401620000d2565b600085856040516200079d9062000978565b620007aa92919062000cbd565b604051809103906000f080158015620007c7573d6000803e3d6000fd5b506040805160c0810182526001600160a01b03838116825260208083018b81529383018a9052606083018990526080830188905260a083018790526003805460018101825560009190915283517fc2575a0e9e593c00f959f8c92f12db2869c3395a3b0502d05e2516446f71f85b600690920291820180546001600160a01b03191691909416178355935180519596509294859492936200088d937fc2575a0e9e593c00f959f8c92f12db2869c3395a3b0502d05e2516446f71f85c01920190620008e9565b5060408201518051620008ab916002840191602090910190620008e9565b5060608201518051620008c9916003840191602090910190620008e9565b506080820151816004015560a08201518160050155505050505050505050565b828054620008f79062000e32565b90600052602060002090601f0160209004810192826200091b576000855562000966565b82601f106200093657805160ff191683800117855562000966565b8280016001018555821562000966579182015b828111156200096657825182559160200191906001019062000949565b506200097492915062000986565b5090565b61187c8062003d4683390190565b5b8082111562000974576000815560010162000987565b80516001600160a01b0381168114620009b557600080fd5b919050565b600082601f830112620009cb578081fd5b81516020620009e4620009de8362000dd9565b62000da6565b80838252828201915082860187848660051b890101111562000a04578586fd5b855b8581101562000a495781516001600160401b0381111562000a25578788fd5b62000a358a87838c010162000aba565b855250928401929084019060010162000a06565b5090979650505050505050565b600082601f83011262000a67578081fd5b8151602062000a7a620009de8362000dd9565b80838252828201915082860187848660051b890101111562000a9a578586fd5b855b8581101562000a495781518452928401929084019060010162000a9c565b600082601f83011262000acb578081fd5b81516001600160401b0381111562000ae75762000ae762000e97565b62000afc601f8201601f191660200162000da6565b81815284602083860101111562000b11578283fd5b62000b2482602083016020870162000dff565b949350505050565b60008060008060008060008060006101208a8c03121562000b4b578485fd5b62000b568a6200099d565b60208b01519099506001600160401b038082111562000b73578687fd5b62000b818d838e0162000aba565b995060408c015191508082111562000b97578687fd5b62000ba58d838e0162000aba565b985060608c015191508082111562000bbb578687fd5b62000bc98d838e0162000aba565b975060808c015191508082111562000bdf578687fd5b62000bed8d838e01620009ba565b965060a08c015191508082111562000c03578586fd5b62000c118d838e01620009ba565b955060c08c015191508082111562000c27578485fd5b62000c358d838e01620009ba565b945060e08c015191508082111562000c4b578384fd5b62000c598d838e0162000a56565b93506101008c015191508082111562000c70578283fd5b5062000c7f8c828d0162000a56565b9150509295985092959850929598565b6000815180845262000ca981602086016020860162000dff565b601f01601f19169290920160200192915050565b60408152600062000cd2604083018562000c8f565b828103602084015262000ce6818562000c8f565b95945050505050565b8281526000602060408184015281845483600182811c91508083168062000d1757607f831692505b85831081141562000d3657634e487b7160e01b87526022600452602487fd5b604088018390526060880181801562000d58576001811462000d6a5762000d96565b60ff1986168252878201965062000d96565b60008b815260209020895b8681101562000d905781548482015290850190890162000d75565b83019750505b50949a9950505050505050505050565b604051601f8201601f191681016001600160401b038111828210171562000dd15762000dd162000e97565b604052919050565b60006001600160401b0382111562000df55762000df562000e97565b5060051b60200190565b60005b8381101562000e1c57818101518382015260200162000e02565b8381111562000e2c576000848401525b50505050565b600181811c9082168062000e4757607f821691505b6020821081141562000e6957634e487b7160e01b600052602260045260246000fd5b50919050565b600060001982141562000e9057634e487b7160e01b81526011600452602481fd5b5060010190565b634e487b7160e01b600052604160045260246000fd5b612e898062000ebd6000396000f3fe608060405260043610620000a95760003560e01c8063d0888d44116200006c578063d0888d441462000199578063d44b9aa114620001be578063e0187c4614620001ef578063e22f72981462000216578063e8dbe1f2146200024f578063f851a440146200028057600080fd5b80631d8e2f4314620000ae57806323d9171314620000f65780639774003d146200010f57806399b1adbf1462000134578063d01ad3751462000159575b600080fd5b348015620000bb57600080fd5b50620000e1620000cd36600462001249565b600090815260076020526040902054421190565b60405190151581526020015b60405180910390f35b6200010d620001073660046200115b565b620002bb565b005b3480156200011c57600080fd5b506200010d6200012e366004620011a9565b620006d7565b3480156200014157600080fd5b50620000e1620001533660046200113e565b62000862565b3480156200016657600080fd5b506200018a620001783660046200113e565b60056020526000908152604090205481565b604051908152602001620000ed565b348015620001a657600080fd5b506200010d620001b83660046200113e565b6200097a565b348015620001cb57600080fd5b506200018a620001dd3660046200113e565b60046020526000908152604090205481565b348015620001fc57600080fd5b506200020762000b82565b604051620000ed9190620012b0565b3480156200022357600080fd5b506200023b6200023536600462001249565b62000ddb565b604051620000ed9695949392919062001382565b3480156200025c57600080fd5b506200018a6200026e36600462001249565b60076020526000908152604090205481565b3480156200028d57600080fd5b50600054620002a2906001600160a01b031681565b6040516001600160a01b039091168152602001620000ed565b6003548110620003125760405162461bcd60e51b815260206004820152601860248201527f496e76616c6964206d656d6265727368697020747970652e000000000000000060448201526064015b60405180910390fd5b600381815481106200033457634e487b7160e01b600052603260045260246000fd5b9060005260206000209060060201600501543410156200038f5760405162461bcd60e51b815260206004820152601560248201527424b739bab33334b1b4b2b73a103830bcb6b2b73a1760591b604482015260640162000309565b80620003ea5760405162461bcd60e51b815260206004820152602360248201527f43616e2774206d696e742061646d696e2074797065206173206e6f6e6520616460448201526236b4b760e91b606482015260840162000309565b6001600160a01b03821660009081526004602052604090205415620004a5576001600160a01b038216600090815260056020908152604080832054835260079091529020544211620004a55760405162461bcd60e51b815260206004820152603a60248201527f4e4654204e6f742045787069726564207965742c20776520646f6e277420737560448201527f70706f7274206475706c69636174652061636365737320796574000000000000606482015260840162000309565b600081815260066020526040812054620004c58364e8d4a510006200152e565b620004d1919062001513565b905060038281548110620004f557634e487b7160e01b600052603260045260246000fd5b6000918252602090912060069091020154604051630f38ca0d60e31b81526001600160a01b03858116600483015260248201849052909116906379c6506890604401600060405180830381600087803b1580156200055257600080fd5b505af115801562000567573d6000803e3d6000fd5b50505050600382815481106200058d57634e487b7160e01b600052603260045260246000fd5b6000918252602090912060069091020154600380546001600160a01b039092169163162094c491849186908110620005d557634e487b7160e01b600052603260045260246000fd5b90600052602060002090600602016003016040518363ffffffff1660e01b8152600401620006059291906200145c565b600060405180830381600087803b1580156200062057600080fd5b505af115801562000635573d6000803e3d6000fd5b505050506000600383815481106200065d57634e487b7160e01b600052603260045260246000fd5b906000526020600020906006020160040154905080426200067f919062001513565b6000838152600760209081526040808320939093556001600160a01b0387168252600481528282208690556005815282822085905585825260069052908120805491620006cc836200158d565b919050555050505050565b6000546001600160a01b03163314620007045760405162461bcd60e51b815260040162000309906200141a565b60008585604051620007169062000fde565b62000723929190620013e8565b604051809103906000f08015801562000740573d6000803e3d6000fd5b506040805160c0810182526001600160a01b03838116825260208083018b81529383018a9052606083018990526080830188905260a083018790526003805460018101825560009190915283517fc2575a0e9e593c00f959f8c92f12db2869c3395a3b0502d05e2516446f71f85b600690920291820180546001600160a01b031916919094161783559351805195965092948594929362000806937fc2575a0e9e593c00f959f8c92f12db2869c3395a3b0502d05e2516446f71f85c0192019062000fec565b50604082015180516200082491600284019160209091019062000fec565b50606082015180516200084291600384019160209091019062000fec565b506080820151816004015560a08201518160050155505050505050505050565b6001600160a01b0381166000908152600460205260408120546003805483929081106200089f57634e487b7160e01b600052603260045260246000fd5b60009182526020808320600692909202909101546001600160a01b0386811684526005909252604092839020549251634f558e7960e01b815260048101939093521690634f558e799060240160206040518083038186803b1580156200090457600080fd5b505afa15801562000919573d6000803e3d6000fd5b505050506040513d601f19601f820116820180604052508101906200093f919062001187565b90508080156200097357506001600160a01b0383166000908152600560209081526040808320548352600790915290205442115b9392505050565b6000546001600160a01b03163314620009a75760405162461bcd60e51b815260040162000309906200141a565b600080805260066020527f54cdd369e4e8a8515e52ca72ec816c2101831ad1f18bf44102ed171459c9b4f854600380548390620009f457634e487b7160e01b600052603260045260246000fd5b6000918252602090912060069091020154604051630f38ca0d60e31b81526001600160a01b03858116600483015260248201849052909116906379c6506890604401600060405180830381600087803b15801562000a5157600080fd5b505af115801562000a66573d6000803e3d6000fd5b505050506003828154811062000a8c57634e487b7160e01b600052603260045260246000fd5b6000918252602090912060069091020154600380546001600160a01b039092169163162094c49184918690811062000ad457634e487b7160e01b600052603260045260246000fd5b90600052602060002090600602016003016040518363ffffffff1660e01b815260040162000b049291906200145c565b600060405180830381600087803b15801562000b1f57600080fd5b505af115801562000b34573d6000803e3d6000fd5b505050506001600160a01b0383166000908152600460209081526040808320859055600582528083208490558483526006909152812080549162000b78836200158d565b9190505550505050565b60606003805480602002602001604051908101604052809291908181526020016000905b8282101562000dd25760008481526020908190206040805160c081019091526006850290910180546001600160a01b03168252600181018054929391929184019162000bf29062001550565b80601f016020809104026020016040519081016040528092919081815260200182805462000c209062001550565b801562000c715780601f1062000c455761010080835404028352916020019162000c71565b820191906000526020600020905b81548152906001019060200180831162000c5357829003601f168201915b5050505050815260200160028201805462000c8c9062001550565b80601f016020809104026020016040519081016040528092919081815260200182805462000cba9062001550565b801562000d0b5780601f1062000cdf5761010080835404028352916020019162000d0b565b820191906000526020600020905b81548152906001019060200180831162000ced57829003601f168201915b5050505050815260200160038201805462000d269062001550565b80601f016020809104026020016040519081016040528092919081815260200182805462000d549062001550565b801562000da55780601f1062000d795761010080835404028352916020019162000da5565b820191906000526020600020905b81548152906001019060200180831162000d8757829003601f168201915b50505050508152602001600482015481526020016005820154815250508152602001906001019062000ba6565b50505050905090565b6003818154811062000dec57600080fd5b6000918252602090912060069091020180546001820180546001600160a01b0390921693509062000e1d9062001550565b80601f016020809104026020016040519081016040528092919081815260200182805462000e4b9062001550565b801562000e9c5780601f1062000e705761010080835404028352916020019162000e9c565b820191906000526020600020905b81548152906001019060200180831162000e7e57829003601f168201915b50505050509080600201805462000eb39062001550565b80601f016020809104026020016040519081016040528092919081815260200182805462000ee19062001550565b801562000f325780601f1062000f065761010080835404028352916020019162000f32565b820191906000526020600020905b81548152906001019060200180831162000f1457829003601f168201915b50505050509080600301805462000f499062001550565b80601f016020809104026020016040519081016040528092919081815260200182805462000f779062001550565b801562000fc85780601f1062000f9c5761010080835404028352916020019162000fc8565b820191906000526020600020905b81548152906001019060200180831162000faa57829003601f168201915b5050505050908060040154908060050154905086565b61187c80620015d883390190565b82805462000ffa9062001550565b90600052602060002090601f0160209004810192826200101e576000855562001069565b82601f106200103957805160ff191683800117855562001069565b8280016001018555821562001069579182015b82811115620010695782518255916020019190600101906200104c565b50620010779291506200107b565b5090565b5b808211156200107757600081556001016200107c565b80356001600160a01b0381168114620010aa57600080fd5b919050565b600082601f830112620010c0578081fd5b813567ffffffffffffffff80821115620010de57620010de620015c1565b604051601f8301601f19908116603f01168101908282118183101715620011095762001109620015c1565b8160405283815286602085880101111562001122578485fd5b8360208701602083013792830160200193909352509392505050565b60006020828403121562001150578081fd5b620009738262001092565b600080604083850312156200116e578081fd5b620011798362001092565b946020939093013593505050565b60006020828403121562001199578081fd5b8151801515811462000973578182fd5b600080600080600060a08688031215620011c1578081fd5b853567ffffffffffffffff80821115620011d9578283fd5b620011e789838a01620010af565b96506020880135915080821115620011fd578283fd5b6200120b89838a01620010af565b9550604088013591508082111562001221578283fd5b506200123088828901620010af565b9598949750949560608101359550608001359392505050565b6000602082840312156200125b578081fd5b5035919050565b60008151808452815b8181101562001289576020818501810151868301820152016200126b565b818111156200129b5782602083870101525b50601f01601f19169290920160200192915050565b60006020808301818452808551808352604092508286019150828160051b870101848801865b838110156200137457888303603f19018552815180516001600160a01b031684528781015160c089860181905290620013128287018262001262565b91505087820151858203898701526200132c828262001262565b9150506060808301518683038288015262001348838262001262565b6080858101519089015260a09485015194909701939093525050509386019390860190600101620012d6565b509098975050505050505050565b6001600160a01b038716815260c060208201819052600090620013a89083018862001262565b8281036040840152620013bc818862001262565b90508281036060840152620013d2818762001262565b6080840195909552505060a00152949350505050565b604081526000620013fd604083018562001262565b828103602084015262001411818562001262565b95945050505050565b60208082526022908201527f4f6e6c7941646d696e3a2063616c6c6572206973206e6f74207468652061646d60408201526134b760f11b606082015260800190565b8281526000602060408184015281845483600182811c9150808316806200148457607f831692505b858310811415620014a357634e487b7160e01b87526022600452602487fd5b6040880183905260608801818015620014c55760018114620014d75762001503565b60ff1986168252878201965062001503565b60008b815260209020895b86811015620014fd57815484820152908501908901620014e2565b83019750505b50949a9950505050505050505050565b60008219821115620015295762001529620015ab565b500190565b60008160001904831182151516156200154b576200154b620015ab565b500290565b600181811c908216806200156557607f821691505b602082108114156200158757634e487b7160e01b600052602260045260246000fd5b50919050565b6000600019821415620015a457620015a4620015ab565b5060010190565b634e487b7160e01b600052601160045260246000fd5b634e487b7160e01b600052604160045260246000fdfe60806040523480156200001157600080fd5b506040516200187c3803806200187c8339810160408190526200003491620001c7565b8151829082906200004d9060009060208501906200006e565b508051620000639060019060208401906200006e565b505050505062000281565b8280546200007c906200022e565b90600052602060002090601f016020900481019282620000a05760008555620000eb565b82601f10620000bb57805160ff1916838001178555620000eb565b82800160010185558215620000eb579182015b82811115620000eb578251825591602001919060010190620000ce565b50620000f9929150620000fd565b5090565b5b80821115620000f95760008155600101620000fe565b600082601f83011262000125578081fd5b81516001600160401b03808211156200014257620001426200026b565b604051601f8301601f19908116603f011681019082821181831017156200016d576200016d6200026b565b8160405283815260209250868385880101111562000189578485fd5b8491505b83821015620001ac57858201830151818301840152908201906200018d565b83821115620001bd57848385830101525b9695505050505050565b60008060408385031215620001da578182fd5b82516001600160401b0380821115620001f1578384fd5b620001ff8683870162000114565b9350602085015191508082111562000215578283fd5b50620002248582860162000114565b9150509250929050565b600181811c908216806200024357607f821691505b602082108114156200026557634e487b7160e01b600052602260045260246000fd5b50919050565b634e487b7160e01b600052604160045260246000fd5b6115eb80620002916000396000f3fe608060405234801561001057600080fd5b50600436106101005760003560e01c80636352211e11610097578063a22cb46511610066578063a22cb4651461021d578063b88d4fde14610230578063c87b56dd14610243578063e985e9c51461025657600080fd5b80636352211e146101ce57806370a08231146101e157806379c650681461020257806395d89b411461021557600080fd5b8063162094c4116100d3578063162094c41461018257806323b872dd1461019557806342842e0e146101a85780634f558e79146101bb57600080fd5b806301ffc9a71461010557806306fdde031461012d578063081812fc14610142578063095ea7b31461016d575b600080fd5b6101186101133660046112f1565b610292565b60405190151581526020015b60405180910390f35b6101356102e4565b6040516101249190611431565b610155610150366004611329565b610376565b6040516001600160a01b039091168152602001610124565b61018061017b3660046112c8565b61039d565b005b610180610190366004611341565b6104b8565b6101806101a33660046111da565b6104c6565b6101806101b63660046111da565b6104f7565b6101186101c9366004611329565b610512565b6101556101dc366004611329565b610533565b6101f46101ef36600461118e565b610593565b604051908152602001610124565b6101806102103660046112c8565b610619565b610135610623565b61018061022b36600461128e565b610632565b61018061023e366004611215565b61063d565b610135610251366004611329565b610675565b6101186102643660046111a8565b6001600160a01b03918216600090815260056020908152604080832093909416825291909152205460ff1690565b60006001600160e01b031982166380ac58cd60e01b14806102c357506001600160e01b03198216635b5e139f60e01b145b806102de57506301ffc9a760e01b6001600160e01b03198316145b92915050565b6060600080546102f390611554565b80601f016020809104026020016040519081016040528092919081815260200182805461031f90611554565b801561036c5780601f106103415761010080835404028352916020019161036c565b820191906000526020600020905b81548152906001019060200180831161034f57829003601f168201915b5050505050905090565b600061038182610786565b506000908152600460205260409020546001600160a01b031690565b60006103a882610533565b9050806001600160a01b0316836001600160a01b0316141561041b5760405162461bcd60e51b815260206004820152602160248201527f4552433732313a20617070726f76616c20746f2063757272656e74206f776e656044820152603960f91b60648201526084015b60405180910390fd5b336001600160a01b038216148061043757506104378133610264565b6104a95760405162461bcd60e51b815260206004820152603d60248201527f4552433732313a20617070726f76652063616c6c6572206973206e6f7420746f60448201527f6b656e206f776e6572206f7220617070726f76656420666f7220616c6c0000006064820152608401610412565b6104b383836107e8565b505050565b6104c28282610856565b5050565b6104d033826108f0565b6104ec5760405162461bcd60e51b815260040161041290611444565b6104b383838361096e565b6104b38383836040518060200160405280600081525061063d565b6000818152600260205260408120546001600160a01b031615155b50919050565b6000818152600260205260408120546001600160a01b0316806102de5760405162461bcd60e51b8152602060048201526018602482015277115490cdcc8c4e881a5b9d985b1a59081d1bdad95b88125160421b6044820152606401610412565b60006001600160a01b0382166105fd5760405162461bcd60e51b815260206004820152602960248201527f4552433732313a2061646472657373207a65726f206973206e6f7420612076616044820152683634b21037bbb732b960b91b6064820152608401610412565b506001600160a01b031660009081526003602052604090205490565b6104c28282610ad2565b6060600180546102f390611554565b6104c2338383610c5d565b61064733836108f0565b6106635760405162461bcd60e51b815260040161041290611444565b61066f84848484610d2c565b50505050565b606061068082610786565b6000828152600660205260408120805461069990611554565b80601f01602080910402602001604051908101604052809291908181526020018280546106c590611554565b80156107125780601f106106e757610100808354040283529160200191610712565b820191906000526020600020905b8154815290600101906020018083116106f557829003601f168201915b50505050509050600061073060408051602081019091526000815290565b9050805160001415610743575092915050565b81511561077557808260405160200161075d9291906113c5565b60405160208183030381529060405292505050919050565b61077e84610d5f565b949350505050565b6000818152600260205260409020546001600160a01b03166107e55760405162461bcd60e51b8152602060048201526018602482015277115490cdcc8c4e881a5b9d985b1a59081d1bdad95b88125160421b6044820152606401610412565b50565b600081815260046020526040902080546001600160a01b0319166001600160a01b038416908117909155819061081d82610533565b6001600160a01b03167f8c5be1e5ebec7d5bd14f71427d1e84f3dd0314c0f7b2291e5b200ac8c7c3b92560405160405180910390a45050565b6000828152600260205260409020546001600160a01b03166108d15760405162461bcd60e51b815260206004820152602e60248201527f45524337323155524953746f726167653a2055524920736574206f66206e6f6e60448201526d32bc34b9ba32b73a103a37b5b2b760911b6064820152608401610412565b600082815260066020908152604090912082516104b392840190611063565b6000806108fc83610533565b9050806001600160a01b0316846001600160a01b0316148061094357506001600160a01b0380821660009081526005602090815260408083209388168352929052205460ff165b8061077e5750836001600160a01b031661095c84610376565b6001600160a01b031614949350505050565b826001600160a01b031661098182610533565b6001600160a01b0316146109a75760405162461bcd60e51b8152600401610412906114e3565b6001600160a01b038216610a095760405162461bcd60e51b8152602060048201526024808201527f4552433732313a207472616e7366657220746f20746865207a65726f206164646044820152637265737360e01b6064820152608401610412565b826001600160a01b0316610a1c82610533565b6001600160a01b031614610a425760405162461bcd60e51b8152600401610412906114e3565b600081815260046020908152604080832080546001600160a01b03199081169091556001600160a01b0387811680865260038552838620805460001901905590871680865283862080546001019055868652600290945282852080549092168417909155905184937fddf252ad1be2c89b69c2b068fc378daa952ba7f163c4a11628f55a4df523b3ef91a4505050565b6001600160a01b038216610b285760405162461bcd60e51b815260206004820181905260248201527f4552433732313a206d696e7420746f20746865207a65726f20616464726573736044820152606401610412565b6000818152600260205260409020546001600160a01b031615610b8d5760405162461bcd60e51b815260206004820152601c60248201527f4552433732313a20746f6b656e20616c7265616479206d696e746564000000006044820152606401610412565b6000818152600260205260409020546001600160a01b031615610bf25760405162461bcd60e51b815260206004820152601c60248201527f4552433732313a20746f6b656e20616c7265616479206d696e746564000000006044820152606401610412565b6001600160a01b038216600081815260036020908152604080832080546001019055848352600290915280822080546001600160a01b0319168417905551839291907fddf252ad1be2c89b69c2b068fc378daa952ba7f163c4a11628f55a4df523b3ef908290a45050565b816001600160a01b0316836001600160a01b03161415610cbf5760405162461bcd60e51b815260206004820152601960248201527f4552433732313a20617070726f766520746f2063616c6c6572000000000000006044820152606401610412565b6001600160a01b03838116600081815260056020908152604080832094871680845294825291829020805460ff191686151590811790915591519182527f17307eab39ab6107e8899845ad3d59bd9653f200f220920489ca2b5937696c31910160405180910390a3505050565b610d3784848461096e565b610d4384848484610dd3565b61066f5760405162461bcd60e51b815260040161041290611491565b6060610d6a82610786565b6000610d8160408051602081019091526000815290565b90506000815111610da15760405180602001604052806000815250610dcc565b80610dab84610ee0565b604051602001610dbc9291906113c5565b6040516020818303038152906040525b9392505050565b60006001600160a01b0384163b15610ed557604051630a85bd0160e11b81526001600160a01b0385169063150b7a0290610e179033908990889088906004016113f4565b602060405180830381600087803b158015610e3157600080fd5b505af1925050508015610e61575060408051601f3d908101601f19168201909252610e5e9181019061130d565b60015b610ebb573d808015610e8f576040519150601f19603f3d011682016040523d82523d6000602084013e610e94565b606091505b508051610eb35760405162461bcd60e51b815260040161041290611491565b805181602001fd5b6001600160e01b031916630a85bd0160e11b14905061077e565b506001949350505050565b60606000610eed83610f8b565b600101905060008167ffffffffffffffff811115610f1b57634e487b7160e01b600052604160045260246000fd5b6040519080825280601f01601f191660200182016040528015610f45576020820181803683370190505b5090508181016020015b600019016f181899199a1a9b1b9c1cb0b131b232b360811b600a86061a8153600a8504945084610f7e57610f83565b610f4f565b509392505050565b60008072184f03e93ff9f4daa797ed6e38ed64bf6a1f0160401b8310610fca5772184f03e93ff9f4daa797ed6e38ed64bf6a1f0160401b830492506040015b6d04ee2d6d415b85acef81000000008310610ff6576d04ee2d6d415b85acef8100000000830492506020015b662386f26fc10000831061101457662386f26fc10000830492506010015b6305f5e100831061102c576305f5e100830492506008015b612710831061104057612710830492506004015b60648310611052576064830492506002015b600a83106102de5760010192915050565b82805461106f90611554565b90600052602060002090601f01602090048101928261109157600085556110d7565b82601f106110aa57805160ff19168380011785556110d7565b828001600101855582156110d7579182015b828111156110d75782518255916020019190600101906110bc565b506110e39291506110e7565b5090565b5b808211156110e357600081556001016110e8565b600067ffffffffffffffff8084111561111757611117611589565b604051601f8501601f19908116603f0116810190828211818310171561113f5761113f611589565b8160405280935085815286868601111561115857600080fd5b858560208301376000602087830101525050509392505050565b80356001600160a01b038116811461118957600080fd5b919050565b60006020828403121561119f578081fd5b610dcc82611172565b600080604083850312156111ba578081fd5b6111c383611172565b91506111d160208401611172565b90509250929050565b6000806000606084860312156111ee578081fd5b6111f784611172565b925061120560208501611172565b9150604084013590509250925092565b6000806000806080858703121561122a578081fd5b61123385611172565b935061124160208601611172565b925060408501359150606085013567ffffffffffffffff811115611263578182fd5b8501601f81018713611273578182fd5b611282878235602084016110fc565b91505092959194509250565b600080604083850312156112a0578182fd5b6112a983611172565b9150602083013580151581146112bd578182fd5b809150509250929050565b600080604083850312156112da578182fd5b6112e383611172565b946020939093013593505050565b600060208284031215611302578081fd5b8135610dcc8161159f565b60006020828403121561131e578081fd5b8151610dcc8161159f565b60006020828403121561133a578081fd5b5035919050565b60008060408385031215611353578182fd5b82359150602083013567ffffffffffffffff811115611370578182fd5b8301601f81018513611380578182fd5b61138f858235602084016110fc565b9150509250929050565b600081518084526113b1816020860160208601611528565b601f01601f19169290920160200192915050565b600083516113d7818460208801611528565b8351908301906113eb818360208801611528565b01949350505050565b6001600160a01b038581168252841660208201526040810183905260806060820181905260009061142790830184611399565b9695505050505050565b602081526000610dcc6020830184611399565b6020808252602d908201527f4552433732313a2063616c6c6572206973206e6f7420746f6b656e206f776e6560408201526c1c881bdc88185c1c1c9bdd9959609a1b606082015260800190565b60208082526032908201527f4552433732313a207472616e7366657220746f206e6f6e20455243373231526560408201527131b2b4bb32b91034b6b83632b6b2b73a32b960711b606082015260800190565b60208082526025908201527f4552433732313a207472616e736665722066726f6d20696e636f72726563742060408201526437bbb732b960d91b606082015260800190565b60005b8381101561154357818101518382015260200161152b565b8381111561066f5750506000910152565b600181811c9082168061156857607f821691505b6020821081141561052d57634e487b7160e01b600052602260045260246000fd5b634e487b7160e01b600052604160045260246000fd5b6001600160e01b0319811681146107e557600080fdfea2646970667358221220833363ba501aea964f94a23c8f2b7d248387527e1cd035a56bb2740b6717fff664736f6c63430008040033a26469706673582212205560f093c9b55acba04a66a610644569aed7c8217f6e28055b5e1a69109e94aa64736f6c6343000804003360806040523480156200001157600080fd5b506040516200187c3803806200187c8339810160408190526200003491620001c7565b8151829082906200004d9060009060208501906200006e565b508051620000639060019060208401906200006e565b505050505062000281565b8280546200007c906200022e565b90600052602060002090601f016020900481019282620000a05760008555620000eb565b82601f10620000bb57805160ff1916838001178555620000eb565b82800160010185558215620000eb579182015b82811115620000eb578251825591602001919060010190620000ce565b50620000f9929150620000fd565b5090565b5b80821115620000f95760008155600101620000fe565b600082601f83011262000125578081fd5b81516001600160401b03808211156200014257620001426200026b565b604051601f8301601f19908116603f011681019082821181831017156200016d576200016d6200026b565b8160405283815260209250868385880101111562000189578485fd5b8491505b83821015620001ac57858201830151818301840152908201906200018d565b83821115620001bd57848385830101525b9695505050505050565b60008060408385031215620001da578182fd5b82516001600160401b0380821115620001f1578384fd5b620001ff8683870162000114565b9350602085015191508082111562000215578283fd5b50620002248582860162000114565b9150509250929050565b600181811c908216806200024357607f821691505b602082108114156200026557634e487b7160e01b600052602260045260246000fd5b50919050565b634e487b7160e01b600052604160045260246000fd5b6115eb80620002916000396000f3fe608060405234801561001057600080fd5b50600436106101005760003560e01c80636352211e11610097578063a22cb46511610066578063a22cb4651461021d578063b88d4fde14610230578063c87b56dd14610243578063e985e9c51461025657600080fd5b80636352211e146101ce57806370a08231146101e157806379c650681461020257806395d89b411461021557600080fd5b8063162094c4116100d3578063162094c41461018257806323b872dd1461019557806342842e0e146101a85780634f558e79146101bb57600080fd5b806301ffc9a71461010557806306fdde031461012d578063081812fc14610142578063095ea7b31461016d575b600080fd5b6101186101133660046112f1565b610292565b60405190151581526020015b60405180910390f35b6101356102e4565b6040516101249190611431565b610155610150366004611329565b610376565b6040516001600160a01b039091168152602001610124565b61018061017b3660046112c8565b61039d565b005b610180610190366004611341565b6104b8565b6101806101a33660046111da565b6104c6565b6101806101b63660046111da565b6104f7565b6101186101c9366004611329565b610512565b6101556101dc366004611329565b610533565b6101f46101ef36600461118e565b610593565b604051908152602001610124565b6101806102103660046112c8565b610619565b610135610623565b61018061022b36600461128e565b610632565b61018061023e366004611215565b61063d565b610135610251366004611329565b610675565b6101186102643660046111a8565b6001600160a01b03918216600090815260056020908152604080832093909416825291909152205460ff1690565b60006001600160e01b031982166380ac58cd60e01b14806102c357506001600160e01b03198216635b5e139f60e01b145b806102de57506301ffc9a760e01b6001600160e01b03198316145b92915050565b6060600080546102f390611554565b80601f016020809104026020016040519081016040528092919081815260200182805461031f90611554565b801561036c5780601f106103415761010080835404028352916020019161036c565b820191906000526020600020905b81548152906001019060200180831161034f57829003601f168201915b5050505050905090565b600061038182610786565b506000908152600460205260409020546001600160a01b031690565b60006103a882610533565b9050806001600160a01b0316836001600160a01b0316141561041b5760405162461bcd60e51b815260206004820152602160248201527f4552433732313a20617070726f76616c20746f2063757272656e74206f776e656044820152603960f91b60648201526084015b60405180910390fd5b336001600160a01b038216148061043757506104378133610264565b6104a95760405162461bcd60e51b815260206004820152603d60248201527f4552433732313a20617070726f76652063616c6c6572206973206e6f7420746f60448201527f6b656e206f776e6572206f7220617070726f76656420666f7220616c6c0000006064820152608401610412565b6104b383836107e8565b505050565b6104c28282610856565b5050565b6104d033826108f0565b6104ec5760405162461bcd60e51b815260040161041290611444565b6104b383838361096e565b6104b38383836040518060200160405280600081525061063d565b6000818152600260205260408120546001600160a01b031615155b50919050565b6000818152600260205260408120546001600160a01b0316806102de5760405162461bcd60e51b8152602060048201526018602482015277115490cdcc8c4e881a5b9d985b1a59081d1bdad95b88125160421b6044820152606401610412565b60006001600160a01b0382166105fd5760405162461bcd60e51b815260206004820152602960248201527f4552433732313a2061646472657373207a65726f206973206e6f7420612076616044820152683634b21037bbb732b960b91b6064820152608401610412565b506001600160a01b031660009081526003602052604090205490565b6104c28282610ad2565b6060600180546102f390611554565b6104c2338383610c5d565b61064733836108f0565b6106635760405162461bcd60e51b815260040161041290611444565b61066f84848484610d2c565b50505050565b606061068082610786565b6000828152600660205260408120805461069990611554565b80601f01602080910402602001604051908101604052809291908181526020018280546106c590611554565b80156107125780601f106106e757610100808354040283529160200191610712565b820191906000526020600020905b8154815290600101906020018083116106f557829003601f168201915b50505050509050600061073060408051602081019091526000815290565b9050805160001415610743575092915050565b81511561077557808260405160200161075d9291906113c5565b60405160208183030381529060405292505050919050565b61077e84610d5f565b949350505050565b6000818152600260205260409020546001600160a01b03166107e55760405162461bcd60e51b8152602060048201526018602482015277115490cdcc8c4e881a5b9d985b1a59081d1bdad95b88125160421b6044820152606401610412565b50565b600081815260046020526040902080546001600160a01b0319166001600160a01b038416908117909155819061081d82610533565b6001600160a01b03167f8c5be1e5ebec7d5bd14f71427d1e84f3dd0314c0f7b2291e5b200ac8c7c3b92560405160405180910390a45050565b6000828152600260205260409020546001600160a01b03166108d15760405162461bcd60e51b815260206004820152602e60248201527f45524337323155524953746f726167653a2055524920736574206f66206e6f6e60448201526d32bc34b9ba32b73a103a37b5b2b760911b6064820152608401610412565b600082815260066020908152604090912082516104b392840190611063565b6000806108fc83610533565b9050806001600160a01b0316846001600160a01b0316148061094357506001600160a01b0380821660009081526005602090815260408083209388168352929052205460ff165b8061077e5750836001600160a01b031661095c84610376565b6001600160a01b031614949350505050565b826001600160a01b031661098182610533565b6001600160a01b0316146109a75760405162461bcd60e51b8152600401610412906114e3565b6001600160a01b038216610a095760405162461bcd60e51b8152602060048201526024808201527f4552433732313a207472616e7366657220746f20746865207a65726f206164646044820152637265737360e01b6064820152608401610412565b826001600160a01b0316610a1c82610533565b6001600160a01b031614610a425760405162461bcd60e51b8152600401610412906114e3565b600081815260046020908152604080832080546001600160a01b03199081169091556001600160a01b0387811680865260038552838620805460001901905590871680865283862080546001019055868652600290945282852080549092168417909155905184937fddf252ad1be2c89b69c2b068fc378daa952ba7f163c4a11628f55a4df523b3ef91a4505050565b6001600160a01b038216610b285760405162461bcd60e51b815260206004820181905260248201527f4552433732313a206d696e7420746f20746865207a65726f20616464726573736044820152606401610412565b6000818152600260205260409020546001600160a01b031615610b8d5760405162461bcd60e51b815260206004820152601c60248201527f4552433732313a20746f6b656e20616c7265616479206d696e746564000000006044820152606401610412565b6000818152600260205260409020546001600160a01b031615610bf25760405162461bcd60e51b815260206004820152601c60248201527f4552433732313a20746f6b656e20616c7265616479206d696e746564000000006044820152606401610412565b6001600160a01b038216600081815260036020908152604080832080546001019055848352600290915280822080546001600160a01b0319168417905551839291907fddf252ad1be2c89b69c2b068fc378daa952ba7f163c4a11628f55a4df523b3ef908290a45050565b816001600160a01b0316836001600160a01b03161415610cbf5760405162461bcd60e51b815260206004820152601960248201527f4552433732313a20617070726f766520746f2063616c6c6572000000000000006044820152606401610412565b6001600160a01b03838116600081815260056020908152604080832094871680845294825291829020805460ff191686151590811790915591519182527f17307eab39ab6107e8899845ad3d59bd9653f200f220920489ca2b5937696c31910160405180910390a3505050565b610d3784848461096e565b610d4384848484610dd3565b61066f5760405162461bcd60e51b815260040161041290611491565b6060610d6a82610786565b6000610d8160408051602081019091526000815290565b90506000815111610da15760405180602001604052806000815250610dcc565b80610dab84610ee0565b604051602001610dbc9291906113c5565b6040516020818303038152906040525b9392505050565b60006001600160a01b0384163b15610ed557604051630a85bd0160e11b81526001600160a01b0385169063150b7a0290610e179033908990889088906004016113f4565b602060405180830381600087803b158015610e3157600080fd5b505af1925050508015610e61575060408051601f3d908101601f19168201909252610e5e9181019061130d565b60015b610ebb573d808015610e8f576040519150601f19603f3d011682016040523d82523d6000602084013e610e94565b606091505b508051610eb35760405162461bcd60e51b815260040161041290611491565b805181602001fd5b6001600160e01b031916630a85bd0160e11b14905061077e565b506001949350505050565b60606000610eed83610f8b565b600101905060008167ffffffffffffffff811115610f1b57634e487b7160e01b600052604160045260246000fd5b6040519080825280601f01601f191660200182016040528015610f45576020820181803683370190505b5090508181016020015b600019016f181899199a1a9b1b9c1cb0b131b232b360811b600a86061a8153600a8504945084610f7e57610f83565b610f4f565b509392505050565b60008072184f03e93ff9f4daa797ed6e38ed64bf6a1f0160401b8310610fca5772184f03e93ff9f4daa797ed6e38ed64bf6a1f0160401b830492506040015b6d04ee2d6d415b85acef81000000008310610ff6576d04ee2d6d415b85acef8100000000830492506020015b662386f26fc10000831061101457662386f26fc10000830492506010015b6305f5e100831061102c576305f5e100830492506008015b612710831061104057612710830492506004015b60648310611052576064830492506002015b600a83106102de5760010192915050565b82805461106f90611554565b90600052602060002090601f01602090048101928261109157600085556110d7565b82601f106110aa57805160ff19168380011785556110d7565b828001600101855582156110d7579182015b828111156110d75782518255916020019190600101906110bc565b506110e39291506110e7565b5090565b5b808211156110e357600081556001016110e8565b600067ffffffffffffffff8084111561111757611117611589565b604051601f8501601f19908116603f0116810190828211818310171561113f5761113f611589565b8160405280935085815286868601111561115857600080fd5b858560208301376000602087830101525050509392505050565b80356001600160a01b038116811461118957600080fd5b919050565b60006020828403121561119f578081fd5b610dcc82611172565b600080604083850312156111ba578081fd5b6111c383611172565b91506111d160208401611172565b90509250929050565b6000806000606084860312156111ee578081fd5b6111f784611172565b925061120560208501611172565b9150604084013590509250925092565b6000806000806080858703121561122a578081fd5b61123385611172565b935061124160208601611172565b925060408501359150606085013567ffffffffffffffff811115611263578182fd5b8501601f81018713611273578182fd5b611282878235602084016110fc565b91505092959194509250565b600080604083850312156112a0578182fd5b6112a983611172565b9150602083013580151581146112bd578182fd5b809150509250929050565b600080604083850312156112da578182fd5b6112e383611172565b946020939093013593505050565b600060208284031215611302578081fd5b8135610dcc8161159f565b60006020828403121561131e578081fd5b8151610dcc8161159f565b60006020828403121561133a578081fd5b5035919050565b60008060408385031215611353578182fd5b82359150602083013567ffffffffffffffff811115611370578182fd5b8301601f81018513611380578182fd5b61138f858235602084016110fc565b9150509250929050565b600081518084526113b1816020860160208601611528565b601f01601f19169290920160200192915050565b600083516113d7818460208801611528565b8351908301906113eb818360208801611528565b01949350505050565b6001600160a01b038581168252841660208201526040810183905260806060820181905260009061142790830184611399565b9695505050505050565b602081526000610dcc6020830184611399565b6020808252602d908201527f4552433732313a2063616c6c6572206973206e6f7420746f6b656e206f776e6560408201526c1c881bdc88185c1c1c9bdd9959609a1b606082015260800190565b60208082526032908201527f4552433732313a207472616e7366657220746f206e6f6e20455243373231526560408201527131b2b4bb32b91034b6b83632b6b2b73a32b960711b606082015260800190565b60208082526025908201527f4552433732313a207472616e736665722066726f6d20696e636f72726563742060408201526437bbb732b960d91b606082015260800190565b60005b8381101561154357818101518382015260200161152b565b8381111561066f5750506000910152565b600181811c9082168061156857607f821691505b6020821081141561052d57634e487b7160e01b600052602260045260246000fd5b634e487b7160e01b600052604160045260246000fd5b6001600160e01b0319811681146107e557600080fdfea2646970667358221220833363ba501aea964f94a23c8f2b7d248387527e1cd035a56bb2740b6717fff664736f6c634300080400334f6e6c7941646d696e3a2063616c6c6572206973206e6f74207468652061646d446966666572656e74206c656e677468206f66205f6e616d657320616e64205fa2646970667358221220a3c075ed5621d6cb5b17f30ee5e2fc6a4fe3709d94d5dcec3ca858c5594816de64736f6c63430008040033",
  "linkReferences": {},
  "deployedLinkReferences": {}
}