{
  "_format": "hh-sol-artifact-1",
  "contractName": "NFTMembership",
  "sourceName": "contracts/NFTMembership.sol",
  "abi": [
    {
      "inputs": [
        {
          "internalType": "string",
          "name": "name",
          "type": "string"
        },
        {
          "internalType": "string",
          "name": "symbol",
          "type": "string"
        }
      ],
      "stateMutability": "nonpayable",
      "type": "constructor"
    },
    {
      "anonymous": false,
      "inputs": [
        {
          "indexed": true,
          "internalType": "address",
          "name": "owner",
          "type": "address"
        },
        {
          "indexed": true,
          "internalType": "address",
          "name": "approved",
          "type": "address"
        },
        {
          "indexed": true,
          "internalType": "uint256",
          "name": "tokenId",
          "type": "uint256"
        }
      ],
      "name": "Approval",
      "type": "event"
    },
    {
      "anonymous": false,
      "inputs": [
        {
          "indexed": true,
          "internalType": "address",
          "name": "owner",
          "type": "address"
        },
        {
          "indexed": true,
          "internalType": "address",
          "name": "operator",
          "type": "address"
        },
        {
          "indexed": false,
          "internalType": "bool",
          "name": "approved",
          "type": "bool"
        }
      ],
      "name": "ApprovalForAll",
      "type": "event"
    },
    {
      "anonymous": false,
      "inputs": [
        {
          "indexed": true,
          "internalType": "address",
          "name": "from",
          "type": "address"
        },
        {
          "indexed": true,
          "internalType": "address",
          "name": "to",
          "type": "address"
        },
        {
          "indexed": true,
          "internalType": "uint256",
          "name": "tokenId",
          "type": "uint256"
        }
      ],
      "name": "Transfer",
      "type": "event"
    },
    {
      "inputs": [
        {
          "internalType": "address",
          "name": "to",
          "type": "address"
        },
        {
          "internalType": "uint256",
          "name": "tokenId",
          "type": "uint256"
        }
      ],
      "name": "approve",
      "outputs": [],
      "stateMutability": "nonpayable",
      "type": "function"
    },
    {
      "inputs": [
        {
          "internalType": "address",
          "name": "owner",
          "type": "address"
        }
      ],
      "name": "balanceOf",
      "outputs": [
        {
          "internalType": "uint256",
          "name": "",
          "type": "uint256"
        }
      ],
      "stateMutability": "view",
      "type": "function"
    },
    {
      "inputs": [
        {
          "internalType": "uint256",
          "name": "_tokenId",
          "type": "uint256"
        }
      ],
      "name": "exists",
      "outputs": [
        {
          "internalType": "bool",
          "name": "",
          "type": "bool"
        }
      ],
      "stateMutability": "view",
      "type": "function"
    },
    {
      "inputs": [
        {
          "internalType": "uint256",
          "name": "tokenId",
          "type": "uint256"
        }
      ],
      "name": "getApproved",
      "outputs": [
        {
          "internalType": "address",
          "name": "",
          "type": "address"
        }
      ],
      "stateMutability": "view",
      "type": "function"
    },
    {
      "inputs": [
        {
          "internalType": "address",
          "name": "owner",
          "type": "address"
        },
        {
          "internalType": "address",
          "name": "operator",
          "type": "address"
        }
      ],
      "name": "isApprovedForAll",
      "outputs": [
        {
          "internalType": "bool",
          "name": "",
          "type": "bool"
        }
      ],
      "stateMutability": "view",
      "type": "function"
    },
    {
      "inputs": [
        {
          "internalType": "address",
          "name": "_to",
          "type": "address"
        },
        {
          "internalType": "uint256",
          "name": "_tokenId",
          "type": "uint256"
        }
      ],
      "name": "mintToken",
      "outputs": [],
      "stateMutability": "nonpayable",
      "type": "function"
    },
    {
      "inputs": [],
      "name": "name",
      "outputs": [
        {
          "internalType": "string",
          "name": "",
          "type": "string"
        }
      ],
      "stateMutability": "view",
      "type": "function"
    },
    {
      "inputs": [
        {
          "internalType": "uint256",
          "name": "tokenId",
          "type": "uint256"
        }
      ],
      "name": "ownerOf",
      "outputs": [
        {
          "internalType": "address",
          "name": "",
          "type": "address"
        }
      ],
      "stateMutability": "view",
      "type": "function"
    },
    {
      "inputs": [
        {
          "internalType": "address",
          "name": "from",
          "type": "address"
        },
        {
          "internalType": "address",
          "name": "to",
          "type": "address"
        },
        {
          "internalType": "uint256",
          "name": "tokenId",
          "type": "uint256"
        }
      ],
      "name": "safeTransferFrom",
      "outputs": [],
      "stateMutability": "nonpayable",
      "type": "function"
    },
    {
      "inputs": [
        {
          "internalType": "address",
          "name": "from",
          "type": "address"
        },
        {
          "internalType": "address",
          "name": "to",
          "type": "address"
        },
        {
          "internalType": "uint256",
          "name": "tokenId",
          "type": "uint256"
        },
        {
          "internalType": "bytes",
          "name": "data",
          "type": "bytes"
        }
      ],
      "name": "safeTransferFrom",
      "outputs": [],
      "stateMutability": "nonpayable",
      "type": "function"
    },
    {
      "inputs": [
        {
          "internalType": "address",
          "name": "operator",
          "type": "address"
        },
        {
          "internalType": "bool",
          "name": "approved",
          "type": "bool"
        }
      ],
      "name": "setApprovalForAll",
      "outputs": [],
      "stateMutability": "nonpayable",
      "type": "function"
    },
    {
      "inputs": [
        {
          "internalType": "uint256",
          "name": "_tokenId",
          "type": "uint256"
        },
        {
          "internalType": "string",
          "name": "_tokenURI",
          "type": "string"
        }
      ],
      "name": "setTokenURI",
      "outputs": [],
      "stateMutability": "nonpayable",
      "type": "function"
    },
    {
      "inputs": [
        {
          "internalType": "bytes4",
          "name": "interfaceId",
          "type": "bytes4"
        }
      ],
      "name": "supportsInterface",
      "outputs": [
        {
          "internalType": "bool",
          "name": "",
          "type": "bool"
        }
      ],
      "stateMutability": "view",
      "type": "function"
    },
    {
      "inputs": [],
      "name": "symbol",
      "outputs": [
        {
          "internalType": "string",
          "name": "",
          "type": "string"
        }
      ],
      "stateMutability": "view",
      "type": "function"
    },
    {
      "inputs": [
        {
          "internalType": "uint256",
          "name": "tokenId",
          "type": "uint256"
        }
      ],
      "name": "tokenURI",
      "outputs": [
        {
          "internalType": "string",
          "name": "",
          "type": "string"
        }
      ],
      "stateMutability": "view",
      "type": "function"
    },
    {
      "inputs": [
        {
          "internalType": "address",
          "name": "from",
          "type": "address"
        },
        {
          "internalType": "address",
          "name": "to",
          "type": "address"
        },
        {
          "internalType": "uint256",
          "name": "tokenId",
          "type": "uint256"
        }
      ],
      "name": "transferFrom",
      "outputs": [],
      "stateMutability": "nonpayable",
      "type": "function"
    }
  ],
  "bytecode": "0x60806040523480156200001157600080fd5b506040516200187c3803806200187c8339810160408190526200003491620001c7565b8151829082906200004d9060009060208501906200006e565b508051620000639060019060208401906200006e565b505050505062000281565b8280546200007c906200022e565b90600052602060002090601f016020900481019282620000a05760008555620000eb565b82601f10620000bb57805160ff1916838001178555620000eb565b82800160010185558215620000eb579182015b82811115620000eb578251825591602001919060010190620000ce565b50620000f9929150620000fd565b5090565b5b80821115620000f95760008155600101620000fe565b600082601f83011262000125578081fd5b81516001600160401b03808211156200014257620001426200026b565b604051601f8301601f19908116603f011681019082821181831017156200016d576200016d6200026b565b8160405283815260209250868385880101111562000189578485fd5b8491505b83821015620001ac57858201830151818301840152908201906200018d565b83821115620001bd57848385830101525b9695505050505050565b60008060408385031215620001da578182fd5b82516001600160401b0380821115620001f1578384fd5b620001ff8683870162000114565b9350602085015191508082111562000215578283fd5b50620002248582860162000114565b9150509250929050565b600181811c908216806200024357607f821691505b602082108114156200026557634e487b7160e01b600052602260045260246000fd5b50919050565b634e487b7160e01b600052604160045260246000fd5b6115eb80620002916000396000f3fe608060405234801561001057600080fd5b50600436106101005760003560e01c80636352211e11610097578063a22cb46511610066578063a22cb4651461021d578063b88d4fde14610230578063c87b56dd14610243578063e985e9c51461025657600080fd5b80636352211e146101ce57806370a08231146101e157806379c650681461020257806395d89b411461021557600080fd5b8063162094c4116100d3578063162094c41461018257806323b872dd1461019557806342842e0e146101a85780634f558e79146101bb57600080fd5b806301ffc9a71461010557806306fdde031461012d578063081812fc14610142578063095ea7b31461016d575b600080fd5b6101186101133660046112f1565b610292565b60405190151581526020015b60405180910390f35b6101356102e4565b6040516101249190611431565b610155610150366004611329565b610376565b6040516001600160a01b039091168152602001610124565b61018061017b3660046112c8565b61039d565b005b610180610190366004611341565b6104b8565b6101806101a33660046111da565b6104c6565b6101806101b63660046111da565b6104f7565b6101186101c9366004611329565b610512565b6101556101dc366004611329565b610533565b6101f46101ef36600461118e565b610593565b604051908152602001610124565b6101806102103660046112c8565b610619565b610135610623565b61018061022b36600461128e565b610632565b61018061023e366004611215565b61063d565b610135610251366004611329565b610675565b6101186102643660046111a8565b6001600160a01b03918216600090815260056020908152604080832093909416825291909152205460ff1690565b60006001600160e01b031982166380ac58cd60e01b14806102c357506001600160e01b03198216635b5e139f60e01b145b806102de57506301ffc9a760e01b6001600160e01b03198316145b92915050565b6060600080546102f390611554565b80601f016020809104026020016040519081016040528092919081815260200182805461031f90611554565b801561036c5780601f106103415761010080835404028352916020019161036c565b820191906000526020600020905b81548152906001019060200180831161034f57829003601f168201915b5050505050905090565b600061038182610786565b506000908152600460205260409020546001600160a01b031690565b60006103a882610533565b9050806001600160a01b0316836001600160a01b0316141561041b5760405162461bcd60e51b815260206004820152602160248201527f4552433732313a20617070726f76616c20746f2063757272656e74206f776e656044820152603960f91b60648201526084015b60405180910390fd5b336001600160a01b038216148061043757506104378133610264565b6104a95760405162461bcd60e51b815260206004820152603d60248201527f4552433732313a20617070726f76652063616c6c6572206973206e6f7420746f60448201527f6b656e206f776e6572206f7220617070726f76656420666f7220616c6c0000006064820152608401610412565b6104b383836107e8565b505050565b6104c28282610856565b5050565b6104d033826108f0565b6104ec5760405162461bcd60e51b815260040161041290611444565b6104b383838361096e565b6104b38383836040518060200160405280600081525061063d565b6000818152600260205260408120546001600160a01b031615155b50919050565b6000818152600260205260408120546001600160a01b0316806102de5760405162461bcd60e51b8152602060048201526018602482015277115490cdcc8c4e881a5b9d985b1a59081d1bdad95b88125160421b6044820152606401610412565b60006001600160a01b0382166105fd5760405162461bcd60e51b815260206004820152602960248201527f4552433732313a2061646472657373207a65726f206973206e6f7420612076616044820152683634b21037bbb732b960b91b6064820152608401610412565b506001600160a01b031660009081526003602052604090205490565b6104c28282610ad2565b6060600180546102f390611554565b6104c2338383610c5d565b61064733836108f0565b6106635760405162461bcd60e51b815260040161041290611444565b61066f84848484610d2c565b50505050565b606061068082610786565b6000828152600660205260408120805461069990611554565b80601f01602080910402602001604051908101604052809291908181526020018280546106c590611554565b80156107125780601f106106e757610100808354040283529160200191610712565b820191906000526020600020905b8154815290600101906020018083116106f557829003601f168201915b50505050509050600061073060408051602081019091526000815290565b9050805160001415610743575092915050565b81511561077557808260405160200161075d9291906113c5565b60405160208183030381529060405292505050919050565b61077e84610d5f565b949350505050565b6000818152600260205260409020546001600160a01b03166107e55760405162461bcd60e51b8152602060048201526018602482015277115490cdcc8c4e881a5b9d985b1a59081d1bdad95b88125160421b6044820152606401610412565b50565b600081815260046020526040902080546001600160a01b0319166001600160a01b038416908117909155819061081d82610533565b6001600160a01b03167f8c5be1e5ebec7d5bd14f71427d1e84f3dd0314c0f7b2291e5b200ac8c7c3b92560405160405180910390a45050565b6000828152600260205260409020546001600160a01b03166108d15760405162461bcd60e51b815260206004820152602e60248201527f45524337323155524953746f726167653a2055524920736574206f66206e6f6e60448201526d32bc34b9ba32b73a103a37b5b2b760911b6064820152608401610412565b600082815260066020908152604090912082516104b392840190611063565b6000806108fc83610533565b9050806001600160a01b0316846001600160a01b0316148061094357506001600160a01b0380821660009081526005602090815260408083209388168352929052205460ff165b8061077e5750836001600160a01b031661095c84610376565b6001600160a01b031614949350505050565b826001600160a01b031661098182610533565b6001600160a01b0316146109a75760405162461bcd60e51b8152600401610412906114e3565b6001600160a01b038216610a095760405162461bcd60e51b8152602060048201526024808201527f4552433732313a207472616e7366657220746f20746865207a65726f206164646044820152637265737360e01b6064820152608401610412565b826001600160a01b0316610a1c82610533565b6001600160a01b031614610a425760405162461bcd60e51b8152600401610412906114e3565b600081815260046020908152604080832080546001600160a01b03199081169091556001600160a01b0387811680865260038552838620805460001901905590871680865283862080546001019055868652600290945282852080549092168417909155905184937fddf252ad1be2c89b69c2b068fc378daa952ba7f163c4a11628f55a4df523b3ef91a4505050565b6001600160a01b038216610b285760405162461bcd60e51b815260206004820181905260248201527f4552433732313a206d696e7420746f20746865207a65726f20616464726573736044820152606401610412565b6000818152600260205260409020546001600160a01b031615610b8d5760405162461bcd60e51b815260206004820152601c60248201527f4552433732313a20746f6b656e20616c7265616479206d696e746564000000006044820152606401610412565b6000818152600260205260409020546001600160a01b031615610bf25760405162461bcd60e51b815260206004820152601c60248201527f4552433732313a20746f6b656e20616c7265616479206d696e746564000000006044820152606401610412565b6001600160a01b038216600081815260036020908152604080832080546001019055848352600290915280822080546001600160a01b0319168417905551839291907fddf252ad1be2c89b69c2b068fc378daa952ba7f163c4a11628f55a4df523b3ef908290a45050565b816001600160a01b0316836001600160a01b03161415610cbf5760405162461bcd60e51b815260206004820152601960248201527f4552433732313a20617070726f766520746f2063616c6c6572000000000000006044820152606401610412565b6001600160a01b03838116600081815260056020908152604080832094871680845294825291829020805460ff191686151590811790915591519182527f17307eab39ab6107e8899845ad3d59bd9653f200f220920489ca2b5937696c31910160405180910390a3505050565b610d3784848461096e565b610d4384848484610dd3565b61066f5760405162461bcd60e51b815260040161041290611491565b6060610d6a82610786565b6000610d8160408051602081019091526000815290565b90506000815111610da15760405180602001604052806000815250610dcc565b80610dab84610ee0565b604051602001610dbc9291906113c5565b6040516020818303038152906040525b9392505050565b60006001600160a01b0384163b15610ed557604051630a85bd0160e11b81526001600160a01b0385169063150b7a0290610e179033908990889088906004016113f4565b602060405180830381600087803b158015610e3157600080fd5b505af1925050508015610e61575060408051601f3d908101601f19168201909252610e5e9181019061130d565b60015b610ebb573d808015610e8f576040519150601f19603f3d011682016040523d82523d6000602084013e610e94565b606091505b508051610eb35760405162461bcd60e51b815260040161041290611491565b805181602001fd5b6001600160e01b031916630a85bd0160e11b14905061077e565b506001949350505050565b60606000610eed83610f8b565b600101905060008167ffffffffffffffff811115610f1b57634e487b7160e01b600052604160045260246000fd5b6040519080825280601f01601f191660200182016040528015610f45576020820181803683370190505b5090508181016020015b600019016f181899199a1a9b1b9c1cb0b131b232b360811b600a86061a8153600a8504945084610f7e57610f83565b610f4f565b509392505050565b60008072184f03e93ff9f4daa797ed6e38ed64bf6a1f0160401b8310610fca5772184f03e93ff9f4daa797ed6e38ed64bf6a1f0160401b830492506040015b6d04ee2d6d415b85acef81000000008310610ff6576d04ee2d6d415b85acef8100000000830492506020015b662386f26fc10000831061101457662386f26fc10000830492506010015b6305f5e100831061102c576305f5e100830492506008015b612710831061104057612710830492506004015b60648310611052576064830492506002015b600a83106102de5760010192915050565b82805461106f90611554565b90600052602060002090601f01602090048101928261109157600085556110d7565b82601f106110aa57805160ff19168380011785556110d7565b828001600101855582156110d7579182015b828111156110d75782518255916020019190600101906110bc565b506110e39291506110e7565b5090565b5b808211156110e357600081556001016110e8565b600067ffffffffffffffff8084111561111757611117611589565b604051601f8501601f19908116603f0116810190828211818310171561113f5761113f611589565b8160405280935085815286868601111561115857600080fd5b858560208301376000602087830101525050509392505050565b80356001600160a01b038116811461118957600080fd5b919050565b60006020828403121561119f578081fd5b610dcc82611172565b600080604083850312156111ba578081fd5b6111c383611172565b91506111d160208401611172565b90509250929050565b6000806000606084860312156111ee578081fd5b6111f784611172565b925061120560208501611172565b9150604084013590509250925092565b6000806000806080858703121561122a578081fd5b61123385611172565b935061124160208601611172565b925060408501359150606085013567ffffffffffffffff811115611263578182fd5b8501601f81018713611273578182fd5b611282878235602084016110fc565b91505092959194509250565b600080604083850312156112a0578182fd5b6112a983611172565b9150602083013580151581146112bd578182fd5b809150509250929050565b600080604083850312156112da578182fd5b6112e383611172565b946020939093013593505050565b600060208284031215611302578081fd5b8135610dcc8161159f565b60006020828403121561131e578081fd5b8151610dcc8161159f565b60006020828403121561133a578081fd5b5035919050565b60008060408385031215611353578182fd5b82359150602083013567ffffffffffffffff811115611370578182fd5b8301601f81018513611380578182fd5b61138f858235602084016110fc565b9150509250929050565b600081518084526113b1816020860160208601611528565b601f01601f19169290920160200192915050565b600083516113d7818460208801611528565b8351908301906113eb818360208801611528565b01949350505050565b6001600160a01b038581168252841660208201526040810183905260806060820181905260009061142790830184611399565b9695505050505050565b602081526000610dcc6020830184611399565b6020808252602d908201527f4552433732313a2063616c6c6572206973206e6f7420746f6b656e206f776e6560408201526c1c881bdc88185c1c1c9bdd9959609a1b606082015260800190565b60208082526032908201527f4552433732313a207472616e7366657220746f206e6f6e20455243373231526560408201527131b2b4bb32b91034b6b83632b6b2b73a32b960711b606082015260800190565b60208082526025908201527f4552433732313a207472616e736665722066726f6d20696e636f72726563742060408201526437bbb732b960d91b606082015260800190565b60005b8381101561154357818101518382015260200161152b565b8381111561066f5750506000910152565b600181811c9082168061156857607f821691505b6020821081141561052d57634e487b7160e01b600052602260045260246000fd5b634e487b7160e01b600052604160045260246000fd5b6001600160e01b0319811681146107e557600080fdfea2646970667358221220833363ba501aea964f94a23c8f2b7d248387527e1cd035a56bb2740b6717fff664736f6c63430008040033",
  "linkReferences": {},
  "deployedLinkReferences": {}
}